{
  "contractName": "BasicKrypto",
  "abi": [
    {
      "constant": true,
      "inputs": [],
      "name": "name",
      "outputs": [
        {
          "name": "",
          "type": "string"
        }
      ],
      "payable": false,
      "stateMutability": "view",
      "type": "function"
    },
    {
      "constant": true,
      "inputs": [],
      "name": "decimals",
      "outputs": [
        {
          "name": "",
          "type": "uint256"
        }
      ],
      "payable": false,
      "stateMutability": "view",
      "type": "function"
    },
    {
      "constant": true,
      "inputs": [],
      "name": "_totalSupply",
      "outputs": [
        {
          "name": "",
          "type": "uint256"
        }
      ],
      "payable": false,
      "stateMutability": "view",
      "type": "function"
    },
    {
      "constant": true,
      "inputs": [],
      "name": "tradable",
      "outputs": [
        {
          "name": "",
          "type": "bool"
        }
      ],
      "payable": false,
      "stateMutability": "view",
      "type": "function"
    },
    {
      "constant": true,
      "inputs": [],
      "name": "owner",
      "outputs": [
        {
          "name": "",
          "type": "address"
        }
      ],
      "payable": false,
      "stateMutability": "view",
      "type": "function"
    },
    {
      "constant": true,
      "inputs": [],
      "name": "symbol",
      "outputs": [
        {
          "name": "",
          "type": "string"
        }
      ],
      "payable": false,
      "stateMutability": "view",
      "type": "function"
    },
    {
      "inputs": [],
      "payable": false,
      "stateMutability": "nonpayable",
      "type": "constructor"
    },
    {
      "anonymous": false,
      "inputs": [
        {
          "indexed": true,
          "name": "_from",
          "type": "address"
        },
        {
          "indexed": true,
          "name": "_to",
          "type": "address"
        },
        {
          "indexed": false,
          "name": "_value",
          "type": "uint256"
        },
        {
          "indexed": true,
          "name": "_data",
          "type": "bytes"
        }
      ],
      "name": "Transfer",
      "type": "event"
    },
    {
      "anonymous": false,
      "inputs": [
        {
          "indexed": true,
          "name": "_from",
          "type": "address"
        },
        {
          "indexed": true,
          "name": "_to",
          "type": "address"
        },
        {
          "indexed": false,
          "name": "_value",
          "type": "uint256"
        }
      ],
      "name": "Transfer",
      "type": "event"
    },
    {
      "anonymous": false,
      "inputs": [
        {
          "indexed": true,
          "name": "_owner",
          "type": "address"
        },
        {
          "indexed": true,
          "name": "_spender",
          "type": "address"
        },
        {
          "indexed": false,
          "name": "_value",
          "type": "uint256"
        }
      ],
      "name": "Approval",
      "type": "event"
    },
    {
      "constant": true,
      "inputs": [],
      "name": "totalSupply",
      "outputs": [
        {
          "name": "",
          "type": "uint256"
        }
      ],
      "payable": false,
      "stateMutability": "view",
      "type": "function"
    },
    {
      "constant": true,
      "inputs": [
        {
          "name": "_addr",
          "type": "address"
        }
      ],
      "name": "balanceOf",
      "outputs": [
        {
          "name": "",
          "type": "uint256"
        }
      ],
      "payable": false,
      "stateMutability": "view",
      "type": "function"
    },
    {
      "constant": false,
      "inputs": [
        {
          "name": "_to",
          "type": "address"
        },
        {
          "name": "_value",
          "type": "uint256"
        }
      ],
      "name": "transfer",
      "outputs": [
        {
          "name": "success",
          "type": "bool"
        }
      ],
      "payable": false,
      "stateMutability": "nonpayable",
      "type": "function"
    },
    {
      "constant": false,
      "inputs": [
        {
          "name": "_to",
          "type": "address"
        },
        {
          "name": "_value",
          "type": "uint256"
        },
        {
          "name": "_data",
          "type": "bytes"
        }
      ],
      "name": "transfer",
      "outputs": [
        {
          "name": "success",
          "type": "bool"
        }
      ],
      "payable": false,
      "stateMutability": "nonpayable",
      "type": "function"
    },
    {
      "constant": false,
      "inputs": [
        {
          "name": "_to",
          "type": "address"
        },
        {
          "name": "_value",
          "type": "uint256"
        },
        {
          "name": "_data",
          "type": "bytes"
        },
        {
          "name": "_custom_fallback",
          "type": "string"
        }
      ],
      "name": "transfer",
      "outputs": [
        {
          "name": "success",
          "type": "bool"
        }
      ],
      "payable": false,
      "stateMutability": "nonpayable",
      "type": "function"
    },
    {
      "constant": false,
      "inputs": [
        {
          "name": "_from",
          "type": "address"
        },
        {
          "name": "_to",
          "type": "address"
        },
        {
          "name": "_value",
          "type": "uint256"
        }
      ],
      "name": "transferFrom",
      "outputs": [
        {
          "name": "success",
          "type": "bool"
        }
      ],
      "payable": false,
      "stateMutability": "nonpayable",
      "type": "function"
    },
    {
      "constant": false,
      "inputs": [
        {
          "name": "_spender",
          "type": "address"
        },
        {
          "name": "_amount",
          "type": "uint256"
        }
      ],
      "name": "approve",
      "outputs": [
        {
          "name": "success",
          "type": "bool"
        }
      ],
      "payable": false,
      "stateMutability": "nonpayable",
      "type": "function"
    },
    {
      "constant": true,
      "inputs": [
        {
          "name": "_owner",
          "type": "address"
        },
        {
          "name": "_spender",
          "type": "address"
        }
      ],
      "name": "allowance",
      "outputs": [
        {
          "name": "remaining",
          "type": "uint256"
        }
      ],
      "payable": false,
      "stateMutability": "view",
      "type": "function"
    },
    {
      "constant": false,
      "inputs": [
        {
          "name": "tokenAddress",
          "type": "address"
        },
        {
          "name": "tokens",
          "type": "uint256"
        }
      ],
      "name": "transferAnyERC20Token",
      "outputs": [
        {
          "name": "success",
          "type": "bool"
        }
      ],
      "payable": false,
      "stateMutability": "nonpayable",
      "type": "function"
    },
    {
      "constant": false,
      "inputs": [],
      "name": "turnOnTradable",
      "outputs": [],
      "payable": false,
      "stateMutability": "nonpayable",
      "type": "function"
    }
  ],
  "bytecode": "0x6060604052678ac7230489e800006000556001805460a060020a60ff0219169055341561002b57600080fd5b60018054600160a060020a03191633600160a060020a0390811691909117808355600080549183168152600260205260408082208390559354909216927fddf252ad1be2c89b69c2b068fc378daa952ba7f163c4a11628f55a4df523b3ef91905190815260200160405180910390a3610d19806100a96000396000f3006060604052600436106100cc5763ffffffff60e060020a60003504166306fdde0381146100d1578063095ea7b31461015b57806318160ddd1461019157806323b872dd146101b65780632fb1746d146101de578063313ce567146101f35780633eaaf86b1461020657806354840c6e1461021957806370a082311461022c5780638da5cb5b1461024b57806395d89b411461027a578063a9059cbb1461028d578063be45fd62146102af578063dc39d06d14610314578063dd62ed3e14610336578063f6368f8a1461035b575b600080fd5b34156100dc57600080fd5b6100e4610402565b60405160208082528190810183818151815260200191508051906020019080838360005b83811015610120578082015183820152602001610108565b50505050905090810190601f16801561014d5780820380516001836020036101000a031916815260200191505b509250505060405180910390f35b341561016657600080fd5b61017d600160a060020a0360043516602435610439565b604051901515815260200160405180910390f35b341561019c57600080fd5b6101a46104a6565b60405190815260200160405180910390f35b34156101c157600080fd5b61017d600160a060020a03600435811690602435166044356104ac565b34156101e957600080fd5b6101f161060d565b005b34156101fe57600080fd5b6101a461064e565b341561021157600080fd5b6101a4610653565b341561022457600080fd5b61017d610659565b341561023757600080fd5b6101a4600160a060020a0360043516610669565b341561025657600080fd5b61025e610684565b604051600160a060020a03909116815260200160405180910390f35b341561028557600080fd5b6100e4610693565b341561029857600080fd5b61017d600160a060020a03600435166024356106ca565b34156102ba57600080fd5b61017d60048035600160a060020a03169060248035919060649060443590810190830135806020601f8201819004810201604051908101604052818152929190602084018383808284375094965061071c95505050505050565b341561031f57600080fd5b61017d600160a060020a03600435166024356109ad565b341561034157600080fd5b6101a4600160a060020a0360043581169060243516610a4f565b341561036657600080fd5b61017d60048035600160a060020a03169060248035919060649060443590810190830135806020601f8201819004810201604051908101604052818152929190602084018383808284378201915050505050509190803590602001908201803590602001908080601f016020809104026020016040519081016040528181529291906020840183838082843750949650610a7a95505050505050565b60408051908101604052600681527f4b727970746f0000000000000000000000000000000000000000000000000000602082015281565b600160a060020a03338116600081815260036020908152604080832094871680845294909152808220859055909291907f8c5be1e5ebec7d5bd14f71427d1e84f3dd0314c0f7b2291e5b200ac8c7c3b9259085905190815260200160405180910390a35060015b92915050565b60005490565b6001805460009160a060020a90910460ff16151514806104da575060015433600160a060020a039081169116145b15156104e557600080fd5b600160a060020a03831615156104fa57600080fd5b600160a060020a038416600090815260026020526040902054610523908363ffffffff610cae16565b600160a060020a0380861660009081526002602090815260408083209490945560038152838220339093168252919091522054610566908363ffffffff610cae16565b600160a060020a03808616600090815260036020908152604080832033851684528252808320949094559186168152600290915220546105ac908363ffffffff610cc316565b600160a060020a03808516600081815260026020526040908190209390935591908616907fddf252ad1be2c89b69c2b068fc378daa952ba7f163c4a11628f55a4df523b3ef9085905190815260200160405180910390a35060019392505050565b60015433600160a060020a0390811691161461062857600080fd5b6001805474ff0000000000000000000000000000000000000000191660a060020a179055565b600a81565b60005481565b60015460a060020a900460ff1681565b600160a060020a031660009081526002602052604090205490565b600154600160a060020a031681565b60408051908101604052600381527f4b52540000000000000000000000000000000000000000000000000000000000602082015281565b60006106d4610cdb565b6001805460a060020a900460ff16151514806106fe575060015433600160a060020a039081169116145b151561070957600080fd5b61071484848361071c565b949350505050565b60018054600091829160a060020a900460ff161515148061074b575060015433600160a060020a039081169116145b151561075657600080fd5b600160a060020a038516151561076b57600080fd5b6107848461077833610669565b9063ffffffff610cae16565b600160a060020a0333166000908152600260205260409020556107b6846107aa87610669565b9063ffffffff610cc316565b600160a060020a0380871660008181526002602052604090819020939093559133909116907fddf252ad1be2c89b69c2b068fc378daa952ba7f163c4a11628f55a4df523b3ef9087905190815260200160405180910390a361081785610cd3565b156109a2575083600160a060020a03811663c0ee0b8a3386866040518463ffffffff1660e060020a0281526004018084600160a060020a0316600160a060020a0316815260200183815260200180602001828103825283818151815260200191508051906020019080838360005b8381101561089d578082015183820152602001610885565b50505050905090810190601f1680156108ca5780820380516001836020036101000a031916815260200191505b50945050505050600060405180830381600087803b15156108ea57600080fd5b6102c65a03f115156108fb57600080fd5b505050826040518082805190602001908083835b6020831061092e5780518252601f19909201916020918201910161090f565b6001836020036101000a0380198251168184511617909252505050919091019250604091505051809103902085600160a060020a031633600160a060020a03167fe19260aff97b920c7df27010903aeb9c8d2be5d310a2c67824cf3f15396e4c168760405190815260200160405180910390a45b506001949350505050565b60015460009033600160a060020a039081169116146109cb57600080fd5b600154600160a060020a038085169163a9059cbb91168460006040516020015260405160e060020a63ffffffff8516028152600160a060020a0390921660048301526024820152604401602060405180830381600087803b1515610a2e57600080fd5b6102c65a03f11515610a3f57600080fd5b5050506040518051949350505050565b600160a060020a03918216600090815260036020908152604080832093909416825291909152205490565b6001805460009160a060020a90910460ff1615151480610aa8575060015433600160a060020a039081169116145b1515610ab357600080fd5b600160a060020a0385161515610ac857600080fd5b610ad58461077833610669565b600160a060020a033316600090815260026020526040902055610afb846107aa87610669565b600160a060020a0380871660008181526002602052604090819020939093559133909116907fddf252ad1be2c89b69c2b068fc378daa952ba7f163c4a11628f55a4df523b3ef9087905190815260200160405180910390a3610b5c85610cd3565b156109a25784600160a060020a03166000836040518082805190602001908083835b60208310610b9d5780518252601f199092019160209182019101610b7e565b6001836020036101000a0380198251168184511617909252505050919091019250604091505051809103902060e060020a9004903387876040518563ffffffff1660e060020a0281526004018084600160a060020a0316600160a060020a03168152602001838152602001828051906020019080838360005b83811015610c2e578082015183820152602001610c16565b50505050905090810190601f168015610c5b5780820380516001836020036101000a031916815260200191505b50935050505060006040518083038185886187965a03f193505050501515610c7f57fe5b826040518082805190602001908083836020831061092e5780518252601f19909201916020918201910161090f565b600082821115610cbd57600080fd5b50900390565b818101828110156104a057600080fd5b6000903b1190565b602060405190810160405260008152905600a165627a7a7230582067ae5355146ee6aa7b85c42c3599746ca696e6ca82694dec6bfba5ae38567f510029",
  "source": "pragma solidity ^0.4.18;\r\nimport \"./ERC223.sol\";\r\nimport \"./SafeMath.sol\";\r\nimport \"./ContractReceiver.sol\";\r\n// ----------------------------------------------------------------------------------------------\r\n// Krypto Token by Krypto Limited.\r\n// An ERC223 standard\r\n//\r\n// author: Krypto Team\r\n// Contact: datwhnguyen@gmail.com \r\ncontract BasicKrypto is ERC223 {\r\n    using SafeMath for uint256;\r\n    \r\n    uint256 public constant decimals = 10;\r\n    string public constant symbol = \"KRT\";\r\n    string public constant name = \"Krypto\";\r\n    uint256 public _totalSupply = 10 ** 19; // total supply is 10^19 unit, equivalent to 10^9 Krypto\r\n\r\n    // Owner of this contract\r\n    address public owner;\r\n\r\n    // tradable\r\n    bool public tradable = false;\r\n\r\n    // Balances Krypto for each account\r\n    mapping(address => uint256) balances;\r\n    \r\n    // Owner of account approves the transfer of an amount to another account\r\n    mapping(address => mapping (address => uint256)) allowed;\r\n            \r\n    /**\r\n     * Functions with this modifier can only be executed by the owner\r\n     */\r\n    modifier onlyOwner() {\r\n        require(msg.sender == owner);\r\n        _;\r\n    }\r\n\r\n    modifier isTradable(){\r\n        require(tradable == true || msg.sender == owner);\r\n        _;\r\n    }\r\n\r\n    /// @dev Constructor\r\n    function BasicKrypto() \r\n    public {\r\n        owner = msg.sender;\r\n        balances[owner] = _totalSupply;\r\n        Transfer(0x0, owner, _totalSupply);\r\n    }\r\n    \r\n    /// @dev Gets totalSupply\r\n    /// @return Total supply\r\n    function totalSupply()\r\n    public \r\n    constant \r\n    returns (uint256) {\r\n        return _totalSupply;\r\n    }\r\n        \r\n    /// @dev Gets account's balance\r\n    /// @param _addr Address of the account\r\n    /// @return Account balance\r\n    function balanceOf(address _addr) \r\n    public\r\n    constant \r\n    returns (uint256) {\r\n        return balances[_addr];\r\n    }\r\n    \r\n    \r\n    //assemble the given address bytecode. If bytecode exists then the _addr is a contract.\r\n    function isContract(address _addr) \r\n    private \r\n    view \r\n    returns (bool is_contract) {\r\n        uint length;\r\n        assembly {\r\n            //retrieve the size of the code on target address, this needs assembly\r\n            length := extcodesize(_addr)\r\n        }\r\n        return (length>0);\r\n    }\r\n \r\n    /// @dev Transfers the balance from msg.sender to an account\r\n    /// @param _to Recipient address\r\n    /// @param _value Transfered amount in unit\r\n    /// @return Transfer status\r\n    // Standard function transfer similar to ERC20 transfer with no _data .\r\n    // Added due to backwards compatibility reasons .\r\n    function transfer(address _to, uint _value) \r\n    public \r\n    isTradable\r\n    returns (bool success) {\r\n        bytes memory empty;\r\n        return transfer(_to, _value, empty);\r\n    }\r\n    \r\n    /// @dev Function that is called when a user or another contract wants to transfer funds .\r\n    /// @param _to Recipient address\r\n    /// @param _value Transfer amount in unit\r\n    /// @param _data the data pass to contract reveiver\r\n    function transfer(\r\n        address _to, \r\n        uint _value, \r\n        bytes _data) \r\n    public\r\n    isTradable \r\n    returns (bool success) {\r\n        require(_to != 0x0);\r\n        balances[msg.sender] = balanceOf(msg.sender).sub(_value);\r\n        balances[_to] = balanceOf(_to).add(_value);\r\n        Transfer(msg.sender, _to, _value);\r\n        if(isContract(_to)) {\r\n            ContractReceiver receiver = ContractReceiver(_to);\r\n            receiver.tokenFallback(msg.sender, _value, _data);\r\n            Transfer(msg.sender, _to, _value, _data);\r\n        }\r\n        return true;\r\n    }\r\n    \r\n    /// @dev Function that is called when a user or another contract wants to transfer funds .\r\n    /// @param _to Recipient address\r\n    /// @param _value Transfer amount in unit\r\n    /// @param _data the data pass to contract reveiver\r\n    /// @param _custom_fallback custom name of fallback function\r\n    function transfer(\r\n        address _to, \r\n        uint _value, \r\n        bytes _data, \r\n        string _custom_fallback) \r\n    public \r\n    isTradable\r\n    returns (bool success) {\r\n        require(_to != 0x0);\r\n        balances[msg.sender] = balanceOf(msg.sender).sub(_value);\r\n        balances[_to] = balanceOf(_to).add(_value);\r\n        Transfer(msg.sender, _to, _value);\r\n\r\n        if(isContract(_to)) {\r\n            assert(_to.call.value(0)(bytes4(keccak256(_custom_fallback)), msg.sender, _value, _data));\r\n            Transfer(msg.sender, _to, _value, _data);\r\n        }\r\n        return true;\r\n    }\r\n         \r\n    // Send _value amount of tokens from address _from to address _to\r\n    // The transferFrom method is used for a withdraw workflow, allowing contracts to send\r\n    // tokens on your behalf, for example to \"deposit\" to a contract address and/or to charge\r\n    // fees in sub-currencies; the command should fail unless the _from account has\r\n    // deliberately authorized the sender of the message via some mechanism; we propose\r\n    // these standardized APIs for approval:\r\n    function transferFrom(\r\n        address _from,\r\n        address _to,\r\n        uint256 _value)\r\n    public\r\n    isTradable\r\n    returns (bool success) {\r\n        require(_to != 0x0);\r\n        balances[_from] = balances[_from].sub(_value);\r\n        allowed[_from][msg.sender] = allowed[_from][msg.sender].sub(_value);\r\n        balances[_to] = balances[_to].add(_value);\r\n\r\n        Transfer(_from, _to, _value);\r\n        return true;\r\n    }\r\n    \r\n    // Allow _spender to withdraw from your account, multiple times, up to the _value amount.\r\n    // If this function is called again it overwrites the current allowance with _value.\r\n    function approve(address _spender, uint256 _amount) \r\n    public\r\n    returns (bool success) {\r\n        allowed[msg.sender][_spender] = _amount;\r\n        Approval(msg.sender, _spender, _amount);\r\n        return true;\r\n    }\r\n    \r\n    // get allowance\r\n    function allowance(address _owner, address _spender) \r\n    public\r\n    constant \r\n    returns (uint256 remaining) {\r\n        return allowed[_owner][_spender];\r\n    }\r\n\r\n    // withdraw any ERC20 token in this contract to owner\r\n    function transferAnyERC20Token(address tokenAddress, uint tokens) public onlyOwner returns (bool success) {\r\n        return ERC223(tokenAddress).transfer(owner, tokens);\r\n    }\r\n    \r\n    // allow people can transfer their token\r\n    // NOTE: can not turn off\r\n    function turnOnTradable() \r\n    public\r\n    onlyOwner{\r\n        tradable = true;\r\n    }\r\n}",
  "sourcePath": "C:\\Users\\trongcau\\Documents\\GitHub\\krypto\\contracts\\BasicKrypto.sol",
  "compiler": {
    "name": "solc",
    "version": "0.4.19+commit.c4cbbb05.Emscripten.clang"
  },
  "schemaVersion": "2.0.0",
  "updatedAt": "2018-04-11T02:48:33.174Z"
}