{
  "contractName": "ContractReceiver",
  "abi": [
    {
      "anonymous": false,
      "inputs": [
        {
          "indexed": false,
          "name": "_from",
          "type": "address"
        },
        {
          "indexed": false,
          "name": "_value",
          "type": "uint256"
        },
        {
          "indexed": false,
          "name": "_data",
          "type": "bytes"
        }
      ],
      "name": "Token",
      "type": "event"
    },
    {
      "constant": false,
      "inputs": [
        {
          "name": "_from",
          "type": "address"
        },
        {
          "name": "_value",
          "type": "uint256"
        },
        {
          "name": "_data",
          "type": "bytes"
        }
      ],
      "name": "tokenFallback",
      "outputs": [],
      "payable": false,
      "stateMutability": "nonpayable",
      "type": "function"
    }
  ],
  "bytecode": "0x6060604052341561000f57600080fd5b6103cf8061001e6000396000f3006060604052600436106100405763ffffffff7c0100000000000000000000000000000000000000000000000000000000600035041663c0ee0b8a8114610045575b600080fd5b341561005057600080fd5b6100b76004803573ffffffffffffffffffffffffffffffffffffffff169060248035919060649060443590810190830135806020601f820181900481020160405190810160405281815292919060208401838380828437509496506100b995505050505050565b005b6100c1610363565b73ffffffffffffffffffffffffffffffffffffffff841681526020810183905260408101829052600060188382815181106100f857fe5b016020015160f860020a900460f860020a0260f860020a900463ffffffff169060020a0260108460018151811061012b57fe5b016020015160f860020a900460f860020a0260f860020a900463ffffffff169060020a0260088560028151811061015e57fe5b016020015160f860020a900460f860020a0260f860020a900463ffffffff169060020a028560038151811061018f57fe5b016020015160f860020a900460f860020a0260f860020a90040101019050807c01000000000000000000000000000000000000000000000000000000000282606001907bffffffffffffffffffffffffffffffffffffffffffffffffffffffff191690817bffffffffffffffffffffffffffffffffffffffffffffffffffffffff1916815250503073ffffffffffffffffffffffffffffffffffffffff168360405180828051906020019080838360005b83811015610258578082015183820152602001610240565b50505050905090810190601f1680156102855780820380516001836020036101000a031916815260200191505b509150506000604051808303818561646e5a03f4915050507f5e3f5fe958cc37da1b14562d4cda2232c0b6218301c38d189dbdcc31b1a2e92d85858560405173ffffffffffffffffffffffffffffffffffffffff841681526020810183905260606040820181815290820183818151815260200191508051906020019080838360005b83811015610320578082015183820152602001610308565b50505050905090810190601f16801561034d5780820380516001836020036101000a031916815260200191505b5094505050505060405180910390a15050505050565b60806040519081016040908152600080835260208301528101610384610391565b8152600060209091015290565b602060405190810160405260008152905600a165627a7a72305820e52cb69f04906fa0419aa62adc5f182addbc3e4cfc7a6e69f8ef8535d29a9b200029",
  "source": "pragma solidity ^0.4.18;\r\n\r\n/// contract receiver interface\r\ncontract ContractReceiver {\r\n    event Token(address _from, uint _value, bytes _data);\r\n     \r\n    struct TKN {\r\n        address sender;\r\n        uint value;\r\n        bytes data;\r\n        bytes4 sig;\r\n    }\r\n    \r\n    \r\n    function tokenFallback(address _from, uint _value, bytes _data) public {\r\n      TKN memory tkn;\r\n      tkn.sender = _from;\r\n      tkn.value = _value;\r\n      tkn.data = _data;\r\n      uint32 u = uint32(_data[3]) + (uint32(_data[2]) << 8) + (uint32(_data[1]) << 16) + (uint32(_data[0]) << 24);\r\n      tkn.sig = bytes4(u);\r\n      address(this).delegatecall(_data);\r\n      /* tkn variable is analogue of msg variable of Ether transaction\r\n      *  tkn.sender is person who initiated this token transaction   (analogue of msg.sender)\r\n      *  tkn.value the number of tokens that were sent   (analogue of msg.value)\r\n      *  tkn.data is data of token transaction   (analogue of msg.data)\r\n      *  tkn.sig is 4 bytes signature of function\r\n      *  if data of token transaction is a function execution\r\n      */\r\n      Token(_from, _value, _data);\r\n    }\r\n}",
  "sourcePath": "C:\\Users\\trong\\Documents\\Truffle\\Krypto\\contracts\\ContractReceiver.sol",
  "compiler": {
    "name": "solc",
    "version": "0.4.19+commit.c4cbbb05.Emscripten.clang"
  },
  "schemaVersion": "2.0.0",
  "updatedAt": "2018-03-06T11:08:21.879Z"
}