{
  "contractName": "ContractReceiver",
  "abi": [
    {
      "anonymous": false,
      "inputs": [
        {
          "indexed": false,
          "name": "_from",
          "type": "address"
        },
        {
          "indexed": false,
          "name": "_value",
          "type": "uint256"
        },
        {
          "indexed": false,
          "name": "_data",
          "type": "bytes"
        }
      ],
      "name": "Token",
      "type": "event"
    },
    {
      "anonymous": false,
      "inputs": [
        {
          "indexed": false,
          "name": "a",
          "type": "uint256"
        }
      ],
      "name": "Test",
      "type": "event"
    },
    {
      "constant": false,
      "inputs": [
        {
          "name": "_from",
          "type": "address"
        },
        {
          "name": "_value",
          "type": "uint256"
        },
        {
          "name": "_data",
          "type": "bytes"
        }
      ],
      "name": "tokenFallback",
      "outputs": [],
      "payable": false,
      "stateMutability": "nonpayable",
      "type": "function"
    },
    {
      "constant": false,
      "inputs": [
        {
          "name": "a",
          "type": "uint256"
        }
      ],
      "name": "test",
      "outputs": [],
      "payable": false,
      "stateMutability": "nonpayable",
      "type": "function"
    }
  ],
  "bytecode": "0x6060604052341561000f57600080fd5b6103ca8061001e6000396000f30060606040526004361061004b5763ffffffff7c010000000000000000000000000000000000000000000000000000000060003504166329e99f078114610050578063c0ee0b8a14610068575b600080fd5b341561005b57600080fd5b6100666004356100a4565b005b341561007357600080fd5b6100666004803573ffffffffffffffffffffffffffffffffffffffff169060248035916044359182019101356100da565b7f63a242a632efe33c0e210e04e4173612a17efa4f16aa4890bc7e46caece80de08160405190815260200160405180910390a150565b6100e261035e565b73ffffffffffffffffffffffffffffffffffffffff851681526020808201859052600090849084908190601f820181900481020160405190810160405281815292919060208401838380828437505050505060408401919091525060188484600081811061014c57fe5b905090013560f860020a900460f860020a02600160f860020a03191660f860020a900463ffffffff169060020a02601085856001818110151561018b57fe5b905090013560f860020a900460f860020a02600160f860020a03191660f860020a900463ffffffff169060020a0260088686600281811015156101ca57fe5b905090013560f860020a900460f860020a02600160f860020a03191660f860020a900463ffffffff169060020a0286866003818110151561020757fe5b905090013560f860020a900460f860020a02600160f860020a03191660f860020a90040101019050807c01000000000000000000000000000000000000000000000000000000000282606001907bffffffffffffffffffffffffffffffffffffffffffffffffffffffff191690817bffffffffffffffffffffffffffffffffffffffffffffffffffffffff1916815250503073ffffffffffffffffffffffffffffffffffffffff1684846040518083838082843782019150509250505060006040518083038160008661646e5a03f191505015156102e157fe5b7f5e3f5fe958cc37da1b14562d4cda2232c0b6218301c38d189dbdcc31b1a2e92d8686868660405173ffffffffffffffffffffffffffffffffffffffff85168152602081018490526060604082018181529082018390526080820184848082843782019150509550505050505060405180910390a1505050505050565b6080604051908101604090815260008083526020830152810161037f61038c565b8152600060209091015290565b602060405190810160405260008152905600a165627a7a7230582030562bf685fcc3c04a9ea8d78bf082df8fa66fc4b0b178e12b36982390493b2f0029",
  "source": "pragma solidity ^0.4.18;\r\n\r\n/// contract receiver interface\r\ncontract ContractReceiver {\r\n    event Token(address _from, uint _value, bytes _data);\r\n    event Test(uint256 a);\r\n     \r\n    struct TKN {\r\n        address sender;\r\n        uint value;\r\n        bytes data;\r\n        bytes4 sig;\r\n    }\r\n    \r\n    \r\n    function tokenFallback(address _from, uint _value, bytes _data) external {\r\n        TKN memory tkn;\r\n        tkn.sender = _from;\r\n        tkn.value = _value;\r\n        tkn.data = _data;\r\n        uint32 u = uint32(_data[3]) + (uint32(_data[2]) << 8) + (uint32(_data[1]) << 16) + (uint32(_data[0]) << 24);\r\n        tkn.sig = bytes4(u);\r\n        /* tkn variable is analogue of msg variable of Ether transaction\r\n        *  tkn.sender is person who initiated this token transaction   (analogue of msg.sender)\r\n        *  tkn.value the number of tokens that were sent   (analogue of msg.value)\r\n        *  tkn.data is data of token transaction   (analogue of msg.data)\r\n        *  tkn.sig is 4 bytes signature of function\r\n        *  if data of token transaction is a function execution\r\n        */\r\n        assert(address(this).call(_data));\r\n        Token(_from, _value, _data);\r\n    }\r\n    \r\n    function test(uint256 a) \r\n    public{\r\n        Test(a);\r\n    }\r\n}",
  "sourcePath": "C:\\Users\\trongcau\\Documents\\GitHub\\krypto\\contracts\\ContractReceiver.sol",
  "compiler": {
    "name": "solc",
    "version": "0.4.19+commit.c4cbbb05.Emscripten.clang"
  },
  "schemaVersion": "2.0.0",
  "updatedAt": "2018-04-11T02:48:33.180Z"
}