{
  "contractName": "Krypto",
  "abi": [
    {
      "constant": true,
      "inputs": [],
      "name": "name",
      "outputs": [
        {
          "name": "",
          "type": "string"
        }
      ],
      "payable": false,
      "stateMutability": "view",
      "type": "function"
    },
    {
      "constant": false,
      "inputs": [
        {
          "name": "_spender",
          "type": "address"
        },
        {
          "name": "_amount",
          "type": "uint256"
        }
      ],
      "name": "approve",
      "outputs": [
        {
          "name": "success",
          "type": "bool"
        }
      ],
      "payable": false,
      "stateMutability": "nonpayable",
      "type": "function"
    },
    {
      "constant": true,
      "inputs": [],
      "name": "totalSupply",
      "outputs": [
        {
          "name": "",
          "type": "uint256"
        }
      ],
      "payable": false,
      "stateMutability": "view",
      "type": "function"
    },
    {
      "constant": false,
      "inputs": [
        {
          "name": "_from",
          "type": "address"
        },
        {
          "name": "_to",
          "type": "address"
        },
        {
          "name": "_value",
          "type": "uint256"
        }
      ],
      "name": "transferFrom",
      "outputs": [
        {
          "name": "success",
          "type": "bool"
        }
      ],
      "payable": false,
      "stateMutability": "nonpayable",
      "type": "function"
    },
    {
      "constant": false,
      "inputs": [],
      "name": "turnOnTradable",
      "outputs": [],
      "payable": false,
      "stateMutability": "nonpayable",
      "type": "function"
    },
    {
      "constant": true,
      "inputs": [],
      "name": "decimals",
      "outputs": [
        {
          "name": "",
          "type": "uint256"
        }
      ],
      "payable": false,
      "stateMutability": "view",
      "type": "function"
    },
    {
      "constant": true,
      "inputs": [],
      "name": "_icoSupply",
      "outputs": [
        {
          "name": "",
          "type": "uint256"
        }
      ],
      "payable": false,
      "stateMutability": "view",
      "type": "function"
    },
    {
      "constant": true,
      "inputs": [],
      "name": "_totalSupply",
      "outputs": [
        {
          "name": "",
          "type": "uint256"
        }
      ],
      "payable": false,
      "stateMutability": "view",
      "type": "function"
    },
    {
      "constant": true,
      "inputs": [],
      "name": "_icoPercent",
      "outputs": [
        {
          "name": "",
          "type": "uint256"
        }
      ],
      "payable": false,
      "stateMutability": "view",
      "type": "function"
    },
    {
      "constant": true,
      "inputs": [],
      "name": "tradable",
      "outputs": [
        {
          "name": "",
          "type": "bool"
        }
      ],
      "payable": false,
      "stateMutability": "view",
      "type": "function"
    },
    {
      "constant": true,
      "inputs": [],
      "name": "_minimumBuy",
      "outputs": [
        {
          "name": "",
          "type": "uint256"
        }
      ],
      "payable": false,
      "stateMutability": "view",
      "type": "function"
    },
    {
      "constant": true,
      "inputs": [
        {
          "name": "_addr",
          "type": "address"
        }
      ],
      "name": "balanceOf",
      "outputs": [
        {
          "name": "",
          "type": "uint256"
        }
      ],
      "payable": false,
      "stateMutability": "view",
      "type": "function"
    },
    {
      "constant": true,
      "inputs": [],
      "name": "_originalBuyPrice",
      "outputs": [
        {
          "name": "",
          "type": "uint256"
        }
      ],
      "payable": false,
      "stateMutability": "view",
      "type": "function"
    },
    {
      "constant": true,
      "inputs": [],
      "name": "_maximumBuy",
      "outputs": [
        {
          "name": "",
          "type": "uint256"
        }
      ],
      "payable": false,
      "stateMutability": "view",
      "type": "function"
    },
    {
      "constant": true,
      "inputs": [],
      "name": "owner",
      "outputs": [
        {
          "name": "",
          "type": "address"
        }
      ],
      "payable": false,
      "stateMutability": "view",
      "type": "function"
    },
    {
      "constant": true,
      "inputs": [],
      "name": "symbol",
      "outputs": [
        {
          "name": "",
          "type": "string"
        }
      ],
      "payable": false,
      "stateMutability": "view",
      "type": "function"
    },
    {
      "constant": false,
      "inputs": [
        {
          "name": "_to",
          "type": "address"
        },
        {
          "name": "_value",
          "type": "uint256"
        }
      ],
      "name": "transfer",
      "outputs": [
        {
          "name": "success",
          "type": "bool"
        }
      ],
      "payable": false,
      "stateMutability": "nonpayable",
      "type": "function"
    },
    {
      "constant": true,
      "inputs": [],
      "name": "totalTokenSold",
      "outputs": [
        {
          "name": "",
          "type": "uint256"
        }
      ],
      "payable": false,
      "stateMutability": "view",
      "type": "function"
    },
    {
      "constant": false,
      "inputs": [
        {
          "name": "_to",
          "type": "address"
        },
        {
          "name": "_value",
          "type": "uint256"
        },
        {
          "name": "_data",
          "type": "bytes"
        }
      ],
      "name": "transfer",
      "outputs": [
        {
          "name": "success",
          "type": "bool"
        }
      ],
      "payable": false,
      "stateMutability": "nonpayable",
      "type": "function"
    },
    {
      "constant": false,
      "inputs": [
        {
          "name": "tokenAddress",
          "type": "address"
        },
        {
          "name": "tokens",
          "type": "uint256"
        }
      ],
      "name": "transferAnyERC20Token",
      "outputs": [
        {
          "name": "success",
          "type": "bool"
        }
      ],
      "payable": false,
      "stateMutability": "nonpayable",
      "type": "function"
    },
    {
      "constant": true,
      "inputs": [
        {
          "name": "_owner",
          "type": "address"
        },
        {
          "name": "_spender",
          "type": "address"
        }
      ],
      "name": "allowance",
      "outputs": [
        {
          "name": "remaining",
          "type": "uint256"
        }
      ],
      "payable": false,
      "stateMutability": "view",
      "type": "function"
    },
    {
      "constant": false,
      "inputs": [
        {
          "name": "_to",
          "type": "address"
        },
        {
          "name": "_value",
          "type": "uint256"
        },
        {
          "name": "_data",
          "type": "bytes"
        },
        {
          "name": "_custom_fallback",
          "type": "string"
        }
      ],
      "name": "transfer",
      "outputs": [
        {
          "name": "success",
          "type": "bool"
        }
      ],
      "payable": false,
      "stateMutability": "nonpayable",
      "type": "function"
    },
    {
      "constant": true,
      "inputs": [],
      "name": "_selling",
      "outputs": [
        {
          "name": "",
          "type": "bool"
        }
      ],
      "payable": false,
      "stateMutability": "view",
      "type": "function"
    },
    {
      "inputs": [],
      "payable": false,
      "stateMutability": "nonpayable",
      "type": "constructor"
    },
    {
      "payable": true,
      "stateMutability": "payable",
      "type": "fallback"
    },
    {
      "anonymous": false,
      "inputs": [
        {
          "indexed": true,
          "name": "_from",
          "type": "address"
        },
        {
          "indexed": true,
          "name": "_to",
          "type": "address"
        },
        {
          "indexed": false,
          "name": "_value",
          "type": "uint256"
        },
        {
          "indexed": true,
          "name": "_data",
          "type": "bytes"
        }
      ],
      "name": "Transfer",
      "type": "event"
    },
    {
      "anonymous": false,
      "inputs": [
        {
          "indexed": true,
          "name": "_from",
          "type": "address"
        },
        {
          "indexed": true,
          "name": "_to",
          "type": "address"
        },
        {
          "indexed": false,
          "name": "_value",
          "type": "uint256"
        }
      ],
      "name": "Transfer",
      "type": "event"
    },
    {
      "anonymous": false,
      "inputs": [
        {
          "indexed": true,
          "name": "_owner",
          "type": "address"
        },
        {
          "indexed": true,
          "name": "_spender",
          "type": "address"
        },
        {
          "indexed": false,
          "name": "_value",
          "type": "uint256"
        }
      ],
      "name": "Approval",
      "type": "event"
    },
    {
      "constant": false,
      "inputs": [],
      "name": "buyKrypto",
      "outputs": [],
      "payable": true,
      "stateMutability": "payable",
      "type": "function"
    },
    {
      "constant": false,
      "inputs": [],
      "name": "turnOnSale",
      "outputs": [],
      "payable": false,
      "stateMutability": "nonpayable",
      "type": "function"
    },
    {
      "constant": false,
      "inputs": [],
      "name": "turnOffSale",
      "outputs": [],
      "payable": false,
      "stateMutability": "nonpayable",
      "type": "function"
    },
    {
      "constant": false,
      "inputs": [
        {
          "name": "newIcoPercent",
          "type": "uint256"
        }
      ],
      "name": "setIcoPercent",
      "outputs": [],
      "payable": false,
      "stateMutability": "nonpayable",
      "type": "function"
    },
    {
      "constant": false,
      "inputs": [
        {
          "name": "newMaximumBuy",
          "type": "uint256"
        }
      ],
      "name": "setMaximumBuy",
      "outputs": [],
      "payable": false,
      "stateMutability": "nonpayable",
      "type": "function"
    },
    {
      "constant": false,
      "inputs": [
        {
          "name": "newBuyPrice",
          "type": "uint256"
        }
      ],
      "name": "setBuyPrice",
      "outputs": [],
      "payable": false,
      "stateMutability": "nonpayable",
      "type": "function"
    },
    {
      "constant": true,
      "inputs": [
        {
          "name": "_addr",
          "type": "address"
        }
      ],
      "name": "isApprovedInvestor",
      "outputs": [
        {
          "name": "",
          "type": "bool"
        }
      ],
      "payable": false,
      "stateMutability": "view",
      "type": "function"
    },
    {
      "constant": true,
      "inputs": [
        {
          "name": "_addr",
          "type": "address"
        }
      ],
      "name": "getDeposit",
      "outputs": [
        {
          "name": "",
          "type": "uint256"
        }
      ],
      "payable": false,
      "stateMutability": "view",
      "type": "function"
    },
    {
      "constant": false,
      "inputs": [
        {
          "name": "newInvestorList",
          "type": "address[]"
        }
      ],
      "name": "addInvestorList",
      "outputs": [],
      "payable": false,
      "stateMutability": "nonpayable",
      "type": "function"
    },
    {
      "constant": false,
      "inputs": [
        {
          "name": "investorList",
          "type": "address[]"
        }
      ],
      "name": "removeInvestorList",
      "outputs": [],
      "payable": false,
      "stateMutability": "nonpayable",
      "type": "function"
    },
    {
      "constant": false,
      "inputs": [],
      "name": "withdraw",
      "outputs": [
        {
          "name": "",
          "type": "bool"
        }
      ],
      "payable": false,
      "stateMutability": "nonpayable",
      "type": "function"
    }
  ],
  "bytecode": "0x6060604052678ac7230489e800006000556001805460a060020a60ff02191681556004805460ff1916909117905565271bb7b9b000600555600a600855606468056bc75e2d6310000004600955670429d069189e0000600a5568015af1d78b58c40000600b556000600c55341561007557600080fd5b60018054600160a060020a03191633600160a060020a0390811691909117808355600080549183168152600260205260408082208390559354909216927fddf252ad1be2c89b69c2b068fc378daa952ba7f163c4a11628f55a4df523b3ef91905190815260200160405180910390a361010260055461010764010000000002610bc2176401000000009004565b610154565b60015433600160a060020a0390811691161461012257600080fd5b6000811161012f57600080fd5b6005819055806d314dc6448d9338c15b0a0000000081151561014d57fe5b04600b5550565b611431806101636000396000f3006060604052600436106101925763ffffffff60e060020a6000350416630188fdef811461019c57806306fdde03146101b2578063095ea7b31461023c57806318160ddd1461027257806323526a341461029757806323b872dd146102aa5780632fb1746d146102d2578063313ce567146102e55780633c2d6447146102f85780633c50afe11461030e5780633ccfd60b146103215780633eaaf86b14610334578063501e3a2c1461034757806354840c6e1461035a57806363ae8d6c1461036d5780636b342eb81461038357806370a082311461039657806378f2144b146103b55780637fd2304f146103c857806380ccf6ab146101925780638da5cb5b146103db57806395d89b411461040a5780639b1fe0d41461041d5780639fc395491461043c578063a9059cbb1461048b578063b5f7f636146104ad578063be45fd62146104c0578063bfb9f08814610525578063dc39d06d14610574578063dd62ed3e14610596578063e1254fba146105bb578063e98cf987146105da578063f6368f8a146105ed578063f9323a3214610694575b61019a6106a7565b005b34156101a757600080fd5b61019a60043561089d565b34156101bd57600080fd5b6101c56108bd565b60405160208082528190810183818151815260200191508051906020019080838360005b838110156102015780820151838201526020016101e9565b50505050905090810190601f16801561022e5780820380516001836020036101000a031916815260200191505b509250505060405180910390f35b341561024757600080fd5b61025e600160a060020a03600435166024356108f4565b604051901515815260200160405180910390f35b341561027d57600080fd5b610285610961565b60405190815260200160405180910390f35b34156102a257600080fd5b61019a610967565b34156102b557600080fd5b61025e600160a060020a036004358116906024351660443561098e565b34156102dd57600080fd5b61019a610add565b34156102f057600080fd5b610285610b1e565b341561030357600080fd5b61019a600435610b23565b341561031957600080fd5b610285610b50565b341561032c57600080fd5b61025e610b56565b341561033f57600080fd5b610285610ba6565b341561035257600080fd5b610285610bac565b341561036557600080fd5b61025e610bb2565b341561037857600080fd5b61019a600435610bc2565b341561038e57600080fd5b610285610c0f565b34156103a157600080fd5b610285600160a060020a0360043516610c15565b34156103c057600080fd5b610285610c30565b34156103d357600080fd5b610285610c36565b34156103e657600080fd5b6103ee610c3c565b604051600160a060020a03909116815260200160405180910390f35b341561041557600080fd5b6101c5610c4b565b341561042857600080fd5b61025e600160a060020a0360043516610c82565b341561044757600080fd5b61019a6004602481358181019083013580602081810201604051908101604052809392919081815260200183836020028082843750949650610ca095505050505050565b341561049657600080fd5b61025e600160a060020a0360043516602435610d1b565b34156104b857600080fd5b610285610d6d565b34156104cb57600080fd5b61025e60048035600160a060020a03169060248035919060649060443590810190830135806020601f82018190048102016040519081016040528181529291906020840183838082843750949650610d7395505050505050565b341561053057600080fd5b61019a6004602481358181019083013580602081810201604051908101604052809392919081815260200183836020028082843750949650610ff295505050505050565b341561057f57600080fd5b61025e600160a060020a0360043516602435611069565b34156105a157600080fd5b610285600160a060020a036004358116906024351661110b565b34156105c657600080fd5b610285600160a060020a0360043516611136565b34156105e557600080fd5b61019a611151565b34156105f857600080fd5b61025e60048035600160a060020a03169060248035919060649060443590810190830135806020601f8201819004810201604051908101604052818152929190602084018383808284378201915050505050509190803590602001908201803590602001908080601f01602080910402602001604051908101604052818152929190602084018383808284375094965061117b95505050505050565b341561069f57600080fd5b61025e61139d565b60045460009060ff1615156106bb57600080fd5b600a5434101580156106e95750600b54600160a060020a033316600090815260076020526040902054340111155b15156106f457600080fd5b600160a060020a03331660009081526006602052604090205460ff16151561071b57600080fd5b600554670de0b6b3a7640000903402600154600160a060020a031660009081526002602052604090205491900491508190101561075757600080fd5b600154600160a060020a0316600090815260026020526040902054610782908263ffffffff6113a616565b600154600160a060020a039081166000908152600260205260408082209390935533909116815220546107bb908263ffffffff6113bb16565b600160a060020a0333166000908152600260209081526040808320939093556007905220546107f0903463ffffffff6113bb16565b600160a060020a033316600090815260076020526040902055600c5461081c908263ffffffff6113bb16565b600c8190556009549010610835576004805460ff191690555b600154600160a060020a0333811691166000805160206113e68339815191528360405190815260200160405180910390a3600154600160a060020a03163480156108fc0290604051600060405180830381858888f19350505050151561089a57600080fd5b50565b60015433600160a060020a039081169116146108b857600080fd5b600b55565b60408051908101604052600681527f4b727970746f0000000000000000000000000000000000000000000000000000602082015281565b600160a060020a03338116600081815260036020908152604080832094871680845294909152808220859055909291907f8c5be1e5ebec7d5bd14f71427d1e84f3dd0314c0f7b2291e5b200ac8c7c3b9259085905190815260200160405180910390a35060015b92915050565b60005490565b60015433600160a060020a0390811691161461098257600080fd5b6004805460ff19169055565b6001805460009160a060020a90910460ff16151514806109bc575060015433600160a060020a039081169116145b15156109c757600080fd5b600160a060020a03831615156109dc57600080fd5b600160a060020a038416600090815260026020526040902054610a05908363ffffffff6113a616565b600160a060020a0380861660009081526002602090815260408083209490945560038152838220339093168252919091522054610a48908363ffffffff6113a616565b600160a060020a0380861660009081526003602090815260408083203385168452825280832094909455918616815260029091522054610a8e908363ffffffff6113bb16565b600160a060020a03808516600081815260026020526040908190209390935591908616906000805160206113e68339815191529085905190815260200160405180910390a35060019392505050565b60015433600160a060020a03908116911614610af857600080fd5b6001805474ff0000000000000000000000000000000000000000191660a060020a179055565b600a81565b60015433600160a060020a03908116911614610b3e57600080fd5b60088190556000546064910204600955565b60095481565b60015460009033600160a060020a03908116911614610b7457600080fd5b600154600160a060020a039081169030163180156108fc0290604051600060405180830381858888f194505050505090565b60005481565b60085481565b60015460a060020a900460ff1681565b60015433600160a060020a03908116911614610bdd57600080fd5b60008111610bea57600080fd5b6005819055806d314dc6448d9338c15b0a00000000811515610c0857fe5b04600b5550565b600a5481565b600160a060020a031660009081526002602052604090205490565b60055481565b600b5481565b600154600160a060020a031681565b60408051908101604052600381527f4b52540000000000000000000000000000000000000000000000000000000000602082015281565b600160a060020a031660009081526006602052604090205460ff1690565b60015460009033600160a060020a03908116911614610cbe57600080fd5b5060005b8151811015610d1757600060066000848481518110610cdd57fe5b90602001906020020151600160a060020a031681526020810191909152604001600020805460ff1916911515919091179055600101610cc2565b5050565b6000610d256113d3565b6001805460a060020a900460ff1615151480610d4f575060015433600160a060020a039081169116145b1515610d5a57600080fd5b610d65848483610d73565b949350505050565b600c5481565b60018054600091829160a060020a900460ff1615151480610da2575060015433600160a060020a039081169116145b1515610dad57600080fd5b600160a060020a0385161515610dc257600080fd5b610ddb84610dcf33610c15565b9063ffffffff6113a616565b600160a060020a033316600090815260026020526040902055610e0d84610e0187610c15565b9063ffffffff6113bb16565b600160a060020a0380871660008181526002602052604090819020939093559133909116906000805160206113e68339815191529087905190815260200160405180910390a3610e5c856113cb565b15610fe7575083600160a060020a03811663c0ee0b8a3386866040518463ffffffff1660e060020a0281526004018084600160a060020a0316600160a060020a0316815260200183815260200180602001828103825283818151815260200191508051906020019080838360005b83811015610ee2578082015183820152602001610eca565b50505050905090810190601f168015610f0f5780820380516001836020036101000a031916815260200191505b50945050505050600060405180830381600087803b1515610f2f57600080fd5b6102c65a03f11515610f4057600080fd5b505050826040518082805190602001908083835b60208310610f735780518252601f199092019160209182019101610f54565b6001836020036101000a0380198251168184511617909252505050919091019250604091505051809103902085600160a060020a031633600160a060020a03167fe19260aff97b920c7df27010903aeb9c8d2be5d310a2c67824cf3f15396e4c168760405190815260200160405180910390a45b506001949350505050565b60015460009033600160a060020a0390811691161461101057600080fd5b5060005b8151811015610d175760016006600084848151811061102f57fe5b90602001906020020151600160a060020a031681526020810191909152604001600020805460ff1916911515919091179055600101611014565b60015460009033600160a060020a0390811691161461108757600080fd5b600154600160a060020a038085169163a9059cbb91168460006040516020015260405160e060020a63ffffffff8516028152600160a060020a0390921660048301526024820152604401602060405180830381600087803b15156110ea57600080fd5b6102c65a03f115156110fb57600080fd5b5050506040518051949350505050565b600160a060020a03918216600090815260036020908152604080832093909416825291909152205490565b600160a060020a031660009081526007602052604090205490565b60015433600160a060020a0390811691161461116c57600080fd5b6004805460ff19166001179055565b6001805460009160a060020a90910460ff16151514806111a9575060015433600160a060020a039081169116145b15156111b457600080fd5b600160a060020a03851615156111c957600080fd5b6111d684610dcf33610c15565b600160a060020a0333166000908152600260205260409020556111fc84610e0187610c15565b600160a060020a0380871660008181526002602052604090819020939093559133909116906000805160206113e68339815191529087905190815260200160405180910390a361124b856113cb565b15610fe75784600160a060020a03166000836040518082805190602001908083835b6020831061128c5780518252601f19909201916020918201910161126d565b6001836020036101000a0380198251168184511617909252505050919091019250604091505051809103902060e060020a9004903387876040518563ffffffff1660e060020a0281526004018084600160a060020a0316600160a060020a03168152602001838152602001828051906020019080838360005b8381101561131d578082015183820152602001611305565b50505050905090810190601f16801561134a5780820380516001836020036101000a031916815260200191505b50935050505060006040518083038185886187965a03f19350505050151561136e57fe5b8260405180828051906020019080838360208310610f735780518252601f199092019160209182019101610f54565b60045460ff1681565b6000828211156113b557600080fd5b50900390565b8181018281101561095b57600080fd5b6000903b1190565b602060405190810160405260008152905600ddf252ad1be2c89b69c2b068fc378daa952ba7f163c4a11628f55a4df523b3efa165627a7a723058203a5a248cfbdb53bcd75b6f743fdd0cea990ff52f7d4d82e8fd67f5e8aab347800029",
  "source": "pragma solidity ^0.4.18;\r\nimport \"./BasicKrypto.sol\";\r\n\r\n// ----------------------------------------------------------------------------------------------\r\n// Krypto Token by Krypto Limited.\r\n// An ERC20 standard\r\n//\r\n// author: Krypto Team\r\n// Contact: datwhnguyen@gmail.com \r\ncontract Krypto is BasicKrypto {\r\n\r\n    bool public _selling = true;//initial selling\r\n    \r\n    uint256 public _originalBuyPrice = 43 * 10**12; // original buy 1ETH = 4300 Krypto = 43 * 10**12 unit\r\n\r\n    // List of approved investors\r\n    mapping(address => bool) private approvedInvestorList;\r\n    \r\n    // deposit\r\n    mapping(address => uint256) private deposit;\r\n    \r\n    // icoPercent\r\n    uint256 public _icoPercent = 10;\r\n    \r\n    // _icoSupply is the avalable unit. Initially, it is _totalSupply\r\n    uint256 public _icoSupply = _totalSupply * _icoPercent / 100;\r\n    \r\n    // minimum buy 0.3 ETH\r\n    uint256 public _minimumBuy = 3 * 10 ** 17;\r\n    \r\n    // maximum buy 25 ETH\r\n    uint256 public _maximumBuy = 25 * 10 ** 18;\r\n\r\n    // totalTokenSold\r\n    uint256 public totalTokenSold = 0;\r\n\r\n    /**\r\n     * Functions with this modifier check on sale status\r\n     * Only allow sale if _selling is on\r\n     */\r\n    modifier onSale() {\r\n        require(_selling);\r\n        _;\r\n    }\r\n    \r\n    /**\r\n     * Functions with this modifier check the validity of address is investor\r\n     */\r\n    modifier validInvestor() {\r\n        require(approvedInvestorList[msg.sender]);\r\n        _;\r\n    }\r\n    \r\n    /**\r\n     * Functions with this modifier check the validity of msg value\r\n     * value must greater than equal minimumBuyPrice\r\n     * total deposit must less than equal maximumBuyPrice\r\n     */\r\n    modifier validValue(){\r\n        // require value >= _minimumBuy AND total deposit of msg.sender <= maximumBuyPrice\r\n        require ( (msg.value >= _minimumBuy) &&\r\n                ( (deposit[msg.sender] + msg.value) <= _maximumBuy) );\r\n        _;\r\n    }\r\n\r\n    /// @dev Fallback function allows to buy ether.\r\n    function()\r\n    public\r\n    payable {\r\n        buyKrypto();\r\n    }\r\n    \r\n    /// @dev buy function allows to buy ether. for using optional data\r\n    function buyKrypto()\r\n    public\r\n    payable\r\n    onSale\r\n    validValue\r\n    validInvestor {\r\n        uint256 requestedUnits = (msg.value * _originalBuyPrice) / 10**18;\r\n        require(balances[owner] >= requestedUnits);\r\n        // prepare transfer data\r\n        balances[owner] = balances[owner].sub(requestedUnits);\r\n        balances[msg.sender] = balances[msg.sender].add(requestedUnits);\r\n        \r\n        // increase total deposit amount\r\n        deposit[msg.sender] = deposit[msg.sender].add(msg.value);\r\n        \r\n        // check total and auto turnOffSale\r\n        totalTokenSold = totalTokenSold.add(requestedUnits);\r\n        if (totalTokenSold >= _icoSupply){\r\n            _selling = false;\r\n        }\r\n        \r\n        // submit transfer\r\n        Transfer(owner, msg.sender, requestedUnits);\r\n        owner.transfer(msg.value);\r\n    }\r\n\r\n    /// @dev Constructor\r\n    function Krypto() BasicKrypto()\r\n    public {\r\n        setBuyPrice(_originalBuyPrice);\r\n    }\r\n    \r\n    /// @dev Enables sale \r\n    function turnOnSale() onlyOwner \r\n    public {\r\n        _selling = true;\r\n    }\r\n\r\n    /// @dev Disables sale\r\n    function turnOffSale() onlyOwner \r\n    public {\r\n        _selling = false;\r\n    }\r\n    \r\n    /// @dev set new icoPercent\r\n    /// @param newIcoPercent new value of icoPercent\r\n    function setIcoPercent(uint256 newIcoPercent)\r\n    public \r\n    onlyOwner {\r\n        _icoPercent = newIcoPercent;\r\n        _icoSupply = _totalSupply * _icoPercent / 100;\r\n    }\r\n    \r\n    /// @dev set new _maximumBuy\r\n    /// @param newMaximumBuy new value of _maximumBuy\r\n    function setMaximumBuy(uint256 newMaximumBuy)\r\n    public \r\n    onlyOwner {\r\n        _maximumBuy = newMaximumBuy;\r\n    }\r\n\r\n    /// @dev Updates buy price (owner ONLY)\r\n    /// @param newBuyPrice New buy price (in UNIT) 1ETH <=> 10 000 0000000000 unit\r\n    function setBuyPrice(uint256 newBuyPrice) \r\n    onlyOwner \r\n    public {\r\n        require(newBuyPrice>0);\r\n        _originalBuyPrice = newBuyPrice; // unit\r\n        // control _maximumBuy_USD = 10,000 USD, Krypto price is 0.1USD\r\n        // maximumBuy_Krypto = 100,000 Krypto = 100,000,0000000000 unit = 10^15\r\n        _maximumBuy = 10**18 * 10**15 /_originalBuyPrice;\r\n    }\r\n    \r\n    /// @dev check address is approved investor\r\n    /// @param _addr address\r\n    function isApprovedInvestor(address _addr)\r\n    public\r\n    constant\r\n    returns (bool) {\r\n        return approvedInvestorList[_addr];\r\n    }\r\n    \r\n    /// @dev get ETH deposit\r\n    /// @param _addr address get deposit\r\n    /// @return amount deposit of an buyer\r\n    function getDeposit(address _addr)\r\n    public\r\n    constant\r\n    returns(uint256){\r\n        return deposit[_addr];\r\n}\r\n    \r\n    /// @dev Adds list of new investors to the investors list and approve all\r\n    /// @param newInvestorList Array of new investors addresses to be added\r\n    function addInvestorList(address[] newInvestorList)\r\n    onlyOwner\r\n    public {\r\n        for (uint256 i = 0; i < newInvestorList.length; i++){\r\n            approvedInvestorList[newInvestorList[i]] = true;\r\n        }\r\n    }\r\n\r\n    /// @dev Removes list of investors from list\r\n    /// @param investorList Array of addresses of investors to be removed\r\n    function removeInvestorList(address[] investorList)\r\n    onlyOwner\r\n    public {\r\n        for (uint256 i = 0; i < investorList.length; i++){\r\n            approvedInvestorList[investorList[i]] = false;\r\n        }\r\n    }\r\n    \r\n    /// @dev Withdraws Ether in contract (Owner only)\r\n    /// @return Status of withdrawal\r\n    function withdraw() onlyOwner \r\n    public \r\n    returns (bool) {\r\n        return owner.send(this.balance);\r\n    }\r\n}",
  "sourcePath": "C:\\Users\\trongcau\\Documents\\GitHub\\krypto\\contracts\\Krypto.sol",
  "compiler": {
    "name": "solc",
    "version": "0.4.19+commit.c4cbbb05.Emscripten.clang"
  },
  "schemaVersion": "2.0.0",
  "updatedAt": "2018-04-11T02:48:33.182Z"
}