{
  "contractName": "Kryptor",
  "abi": [
    {
      "constant": false,
      "inputs": [
        {
          "name": "newMaximumBuy",
          "type": "uint256"
        }
      ],
      "name": "setMaximumBuy",
      "outputs": [],
      "payable": false,
      "stateMutability": "nonpayable",
      "type": "function"
    },
    {
      "constant": true,
      "inputs": [],
      "name": "name",
      "outputs": [
        {
          "name": "",
          "type": "string"
        }
      ],
      "payable": false,
      "stateMutability": "view",
      "type": "function"
    },
    {
      "constant": false,
      "inputs": [
        {
          "name": "_spender",
          "type": "address"
        },
        {
          "name": "_amount",
          "type": "uint256"
        }
      ],
      "name": "approve",
      "outputs": [
        {
          "name": "success",
          "type": "bool"
        }
      ],
      "payable": false,
      "stateMutability": "nonpayable",
      "type": "function"
    },
    {
      "constant": true,
      "inputs": [],
      "name": "totalSupply",
      "outputs": [
        {
          "name": "",
          "type": "uint256"
        }
      ],
      "payable": false,
      "stateMutability": "view",
      "type": "function"
    },
    {
      "constant": false,
      "inputs": [],
      "name": "turnOffSale",
      "outputs": [],
      "payable": false,
      "stateMutability": "nonpayable",
      "type": "function"
    },
    {
      "constant": false,
      "inputs": [
        {
          "name": "_from",
          "type": "address"
        },
        {
          "name": "_to",
          "type": "address"
        },
        {
          "name": "_amount",
          "type": "uint256"
        }
      ],
      "name": "transferFrom",
      "outputs": [
        {
          "name": "success",
          "type": "bool"
        }
      ],
      "payable": false,
      "stateMutability": "nonpayable",
      "type": "function"
    },
    {
      "constant": false,
      "inputs": [],
      "name": "turnOnTradable",
      "outputs": [],
      "payable": false,
      "stateMutability": "nonpayable",
      "type": "function"
    },
    {
      "constant": true,
      "inputs": [],
      "name": "decimals",
      "outputs": [
        {
          "name": "",
          "type": "uint256"
        }
      ],
      "payable": false,
      "stateMutability": "view",
      "type": "function"
    },
    {
      "constant": true,
      "inputs": [],
      "name": "MAX_UINT256",
      "outputs": [
        {
          "name": "",
          "type": "uint256"
        }
      ],
      "payable": false,
      "stateMutability": "view",
      "type": "function"
    },
    {
      "constant": false,
      "inputs": [
        {
          "name": "newIcoPercent",
          "type": "uint256"
        }
      ],
      "name": "setIcoPercent",
      "outputs": [],
      "payable": false,
      "stateMutability": "nonpayable",
      "type": "function"
    },
    {
      "constant": true,
      "inputs": [],
      "name": "_icoSupply",
      "outputs": [
        {
          "name": "",
          "type": "uint256"
        }
      ],
      "payable": false,
      "stateMutability": "view",
      "type": "function"
    },
    {
      "constant": false,
      "inputs": [],
      "name": "withdraw",
      "outputs": [
        {
          "name": "",
          "type": "bool"
        }
      ],
      "payable": false,
      "stateMutability": "nonpayable",
      "type": "function"
    },
    {
      "constant": true,
      "inputs": [],
      "name": "_totalSupply",
      "outputs": [
        {
          "name": "",
          "type": "uint256"
        }
      ],
      "payable": false,
      "stateMutability": "view",
      "type": "function"
    },
    {
      "constant": true,
      "inputs": [],
      "name": "_icoPercent",
      "outputs": [
        {
          "name": "",
          "type": "uint256"
        }
      ],
      "payable": false,
      "stateMutability": "view",
      "type": "function"
    },
    {
      "constant": true,
      "inputs": [],
      "name": "tradable",
      "outputs": [
        {
          "name": "",
          "type": "bool"
        }
      ],
      "payable": false,
      "stateMutability": "view",
      "type": "function"
    },
    {
      "constant": false,
      "inputs": [
        {
          "name": "newBuyPrice",
          "type": "uint256"
        }
      ],
      "name": "setBuyPrice",
      "outputs": [],
      "payable": false,
      "stateMutability": "nonpayable",
      "type": "function"
    },
    {
      "constant": true,
      "inputs": [],
      "name": "_minimumBuy",
      "outputs": [
        {
          "name": "",
          "type": "uint256"
        }
      ],
      "payable": false,
      "stateMutability": "view",
      "type": "function"
    },
    {
      "constant": true,
      "inputs": [
        {
          "name": "_addr",
          "type": "address"
        }
      ],
      "name": "balanceOf",
      "outputs": [
        {
          "name": "",
          "type": "uint256"
        }
      ],
      "payable": false,
      "stateMutability": "view",
      "type": "function"
    },
    {
      "constant": true,
      "inputs": [],
      "name": "_originalBuyPrice",
      "outputs": [
        {
          "name": "",
          "type": "uint256"
        }
      ],
      "payable": false,
      "stateMutability": "view",
      "type": "function"
    },
    {
      "constant": true,
      "inputs": [],
      "name": "_maximumBuy",
      "outputs": [
        {
          "name": "",
          "type": "uint256"
        }
      ],
      "payable": false,
      "stateMutability": "view",
      "type": "function"
    },
    {
      "constant": true,
      "inputs": [],
      "name": "owner",
      "outputs": [
        {
          "name": "",
          "type": "address"
        }
      ],
      "payable": false,
      "stateMutability": "view",
      "type": "function"
    },
    {
      "constant": true,
      "inputs": [],
      "name": "symbol",
      "outputs": [
        {
          "name": "",
          "type": "string"
        }
      ],
      "payable": false,
      "stateMutability": "view",
      "type": "function"
    },
    {
      "constant": true,
      "inputs": [
        {
          "name": "_addr",
          "type": "address"
        }
      ],
      "name": "isApprovedInvestor",
      "outputs": [
        {
          "name": "",
          "type": "bool"
        }
      ],
      "payable": false,
      "stateMutability": "view",
      "type": "function"
    },
    {
      "constant": false,
      "inputs": [
        {
          "name": "investorList",
          "type": "address[]"
        }
      ],
      "name": "removeInvestorList",
      "outputs": [],
      "payable": false,
      "stateMutability": "nonpayable",
      "type": "function"
    },
    {
      "constant": false,
      "inputs": [
        {
          "name": "_to",
          "type": "address"
        },
        {
          "name": "_value",
          "type": "uint256"
        }
      ],
      "name": "transfer",
      "outputs": [
        {
          "name": "success",
          "type": "bool"
        }
      ],
      "payable": false,
      "stateMutability": "nonpayable",
      "type": "function"
    },
    {
      "constant": true,
      "inputs": [],
      "name": "totalTokenSold",
      "outputs": [
        {
          "name": "",
          "type": "uint256"
        }
      ],
      "payable": false,
      "stateMutability": "view",
      "type": "function"
    },
    {
      "constant": false,
      "inputs": [
        {
          "name": "_to",
          "type": "address"
        },
        {
          "name": "_value",
          "type": "uint256"
        },
        {
          "name": "_data",
          "type": "bytes"
        }
      ],
      "name": "transfer",
      "outputs": [
        {
          "name": "success",
          "type": "bool"
        }
      ],
      "payable": false,
      "stateMutability": "nonpayable",
      "type": "function"
    },
    {
      "constant": false,
      "inputs": [
        {
          "name": "newInvestorList",
          "type": "address[]"
        }
      ],
      "name": "addInvestorList",
      "outputs": [],
      "payable": false,
      "stateMutability": "nonpayable",
      "type": "function"
    },
    {
      "constant": false,
      "inputs": [],
      "name": "buyKryptor",
      "outputs": [],
      "payable": true,
      "stateMutability": "payable",
      "type": "function"
    },
    {
      "constant": true,
      "inputs": [
        {
          "name": "_owner",
          "type": "address"
        },
        {
          "name": "_spender",
          "type": "address"
        }
      ],
      "name": "allowance",
      "outputs": [
        {
          "name": "remaining",
          "type": "uint256"
        }
      ],
      "payable": false,
      "stateMutability": "view",
      "type": "function"
    },
    {
      "constant": true,
      "inputs": [
        {
          "name": "_addr",
          "type": "address"
        }
      ],
      "name": "getDeposit",
      "outputs": [
        {
          "name": "",
          "type": "uint256"
        }
      ],
      "payable": false,
      "stateMutability": "view",
      "type": "function"
    },
    {
      "constant": false,
      "inputs": [],
      "name": "turnOnSale",
      "outputs": [],
      "payable": false,
      "stateMutability": "nonpayable",
      "type": "function"
    },
    {
      "constant": false,
      "inputs": [
        {
          "name": "_to",
          "type": "address"
        },
        {
          "name": "_value",
          "type": "uint256"
        },
        {
          "name": "_data",
          "type": "bytes"
        },
        {
          "name": "_custom_fallback",
          "type": "string"
        }
      ],
      "name": "transfer",
      "outputs": [
        {
          "name": "success",
          "type": "bool"
        }
      ],
      "payable": false,
      "stateMutability": "nonpayable",
      "type": "function"
    },
    {
      "constant": true,
      "inputs": [],
      "name": "_selling",
      "outputs": [
        {
          "name": "",
          "type": "bool"
        }
      ],
      "payable": false,
      "stateMutability": "view",
      "type": "function"
    },
    {
      "inputs": [],
      "payable": false,
      "stateMutability": "nonpayable",
      "type": "constructor"
    },
    {
      "payable": true,
      "stateMutability": "payable",
      "type": "fallback"
    },
    {
      "anonymous": false,
      "inputs": [
        {
          "indexed": true,
          "name": "_from",
          "type": "address"
        },
        {
          "indexed": true,
          "name": "_to",
          "type": "address"
        },
        {
          "indexed": false,
          "name": "_value",
          "type": "uint256"
        }
      ],
      "name": "Transfer",
      "type": "event"
    },
    {
      "anonymous": false,
      "inputs": [
        {
          "indexed": true,
          "name": "_from",
          "type": "address"
        },
        {
          "indexed": true,
          "name": "_to",
          "type": "address"
        },
        {
          "indexed": false,
          "name": "_value",
          "type": "uint256"
        },
        {
          "indexed": true,
          "name": "data",
          "type": "bytes"
        }
      ],
      "name": "Transfer",
      "type": "event"
    },
    {
      "anonymous": false,
      "inputs": [
        {
          "indexed": true,
          "name": "_owner",
          "type": "address"
        },
        {
          "indexed": true,
          "name": "_spender",
          "type": "address"
        },
        {
          "indexed": false,
          "name": "_value",
          "type": "uint256"
        }
      ],
      "name": "Approval",
      "type": "event"
    }
  ],
  "bytecode": "0x60606040526000805460ff19166001908117909155678ac7230489e80000905565271bb7b9b000600255600a600855606468056bc75e2d6310000004600955670429d069189e0000600a5568015af1d78b58c40000600b556000600c55600d805460ff19169055341561007157600080fd5b60038054600160a060020a03191633600160a060020a03161790556002546100a5906401000000006101088102610b571704565b60015460038054600160a060020a0390811660009081526004602052604080822085905592549091169290917fddf252ad1be2c89b69c2b068fc378daa952ba7f163c4a11628f55a4df523b3ef91905190815260200160405180910390a3610155565b60035433600160a060020a0390811691161461012357600080fd5b6000811161013057600080fd5b6002819055806d314dc6448d9338c15b0a0000000081151561014e57fe5b04600b5550565b6113e4806101646000396000f3006060604052600436106101925763ffffffff60e060020a6000350416630188fdef811461019c57806306fdde03146101b2578063095ea7b31461023c57806318160ddd1461027257806323526a341461029757806323b872dd146102aa5780632fb1746d146102d2578063313ce567146102e557806333a581d2146102f85780633c2d64471461030b5780633c50afe1146103215780633ccfd60b146103345780633eaaf86b14610347578063501e3a2c1461035a57806354840c6e1461036d57806363ae8d6c146103805780636b342eb81461039657806370a08231146103a957806378f2144b146103c85780637fd2304f146103db5780638da5cb5b146103ee57806395d89b411461041d5780639b1fe0d4146104305780639fc395491461044f578063a9059cbb1461049e578063b5f7f636146104c0578063be45fd62146104d3578063bfb9f08814610538578063dbe6cff314610192578063dd62ed3e14610587578063e1254fba146105ac578063e98cf987146105cb578063f6368f8a146105de578063f9323a3214610685575b61019a610698565b005b34156101a757600080fd5b61019a60043561081e565b34156101bd57600080fd5b6101c561083e565b60405160208082528190810183818151815260200191508051906020019080838360005b838110156102015780820151838201526020016101e9565b50505050905090810190601f16801561022e5780820380516001836020036101000a031916815260200191505b509250505060405180910390f35b341561024757600080fd5b61025e600160a060020a0360043516602435610875565b604051901515815260200160405180910390f35b341561027d57600080fd5b610285610910565b60405190815260200160405180910390f35b34156102a257600080fd5b61019a610916565b34156102b557600080fd5b61025e600160a060020a036004358116906024351660443561093d565b34156102dd57600080fd5b61019a610a8a565b34156102f057600080fd5b610285610ab4565b341561030357600080fd5b610285610ab9565b341561031657600080fd5b61019a600435610abf565b341561032c57600080fd5b610285610aec565b341561033f57600080fd5b61025e610af2565b341561035257600080fd5b610285610b42565b341561036557600080fd5b610285610b48565b341561037857600080fd5b61025e610b4e565b341561038b57600080fd5b61019a600435610b57565b34156103a157600080fd5b610285610ba4565b34156103b457600080fd5b610285600160a060020a0360043516610baa565b34156103d357600080fd5b610285610bc5565b34156103e657600080fd5b610285610bcb565b34156103f957600080fd5b610401610bd1565b604051600160a060020a03909116815260200160405180910390f35b341561042857600080fd5b6101c5610be0565b341561043b57600080fd5b61025e600160a060020a0360043516610c17565b341561045a57600080fd5b61019a6004602481358181019083013580602081810201604051908101604052809392919081815260200183836020028082843750949650610c3595505050505050565b34156104a957600080fd5b61025e600160a060020a0360043516602435610cb0565b34156104cb57600080fd5b610285610cec565b34156104de57600080fd5b61025e60048035600160a060020a03169060248035919060649060443590810190830135806020601f82018190048102016040519081016040528181529291906020840183838082843750949650610cf295505050505050565b341561054357600080fd5b61019a6004602481358181019083013580602081810201604051908101604052809392919081815260200183836020028082843750949650610d1f95505050505050565b341561059257600080fd5b610285600160a060020a0360043581169060243516610d96565b34156105b757600080fd5b610285600160a060020a0360043516610dc1565b34156105d657600080fd5b61019a610ddc565b34156105e957600080fd5b61025e60048035600160a060020a03169060248035919060649060443590810190830135806020601f8201819004810201604051908101604052818152929190602084018383808284378201915050505050509190803590602001908201803590602001908080601f016020809104026020016040519081016040528181529291906020840183838082843750949650610e0695505050505050565b341561069057600080fd5b61025e611059565b6000805460ff1615156106aa57600080fd5b600a5434101580156106d85750600b54600160a060020a033316600090815260076020526040902054340111155b15156106e357600080fd5b600160a060020a03331660009081526006602052604090205460ff16151561070a57600080fd5b600254670de0b6b3a7640000903402600354600160a060020a031660009081526004602052604090205491900491508190101561074657600080fd5b600354600160a060020a039081166000908152600460209081526040808320805486900390553390931682528282208054850190556007905220805434019055600c805482019081905560095490106107a4576000805460ff191690555b600354600160a060020a0333811691167fddf252ad1be2c89b69c2b068fc378daa952ba7f163c4a11628f55a4df523b3ef8360405190815260200160405180910390a3600354600160a060020a03163480156108fc0290604051600060405180830381858888f19350505050151561081b57600080fd5b50565b60035433600160a060020a0390811691161461083957600080fd5b600b55565b60408051908101604052600781527f4b727970746f7200000000000000000000000000000000000000000000000000602082015281565b600d5460009060ff1615156001148061089c575060035433600160a060020a039081169116145b15156108a757600080fd5b600160a060020a03338116600081815260056020908152604080832094881680845294909152908190208590557f8c5be1e5ebec7d5bd14f71427d1e84f3dd0314c0f7b2291e5b200ac8c7c3b9259085905190815260200160405180910390a350600192915050565b60015490565b60035433600160a060020a0390811691161461093157600080fd5b6000805460ff19169055565b600d5460009060ff16151560011480610964575060035433600160a060020a039081169116145b151561096f57600080fd5b600160a060020a0384166000908152600460205260409020548290108015906109bf5750600160a060020a0380851660009081526005602090815260408083203390941683529290522054829010155b80156109cb5750600082115b80156109f05750600160a060020a038316600090815260046020526040902054828101115b15610a7f57600160a060020a0380851660008181526004602081815260408084208054899003905560058252808420338716855282528084208054899003905594881680845291905290839020805486019055917fddf252ad1be2c89b69c2b068fc378daa952ba7f163c4a11628f55a4df523b3ef9085905190815260200160405180910390a3506001610a83565b5060005b9392505050565b60035433600160a060020a03908116911614610aa557600080fd5b600d805460ff19166001179055565b600a81565b60001981565b60035433600160a060020a03908116911614610ada57600080fd5b60088190556001546064910204600955565b60095481565b60035460009033600160a060020a03908116911614610b1057600080fd5b600354600160a060020a039081169030163180156108fc0290604051600060405180830381858888f194505050505090565b60015481565b60085481565b600d5460ff1681565b60035433600160a060020a03908116911614610b7257600080fd5b60008111610b7f57600080fd5b6002819055806d314dc6448d9338c15b0a00000000811515610b9d57fe5b04600b5550565b600a5481565b600160a060020a031660009081526004602052604090205490565b60025481565b600b5481565b600354600160a060020a031681565b60408051908101604052600381527f4b544f0000000000000000000000000000000000000000000000000000000000602082015281565b600160a060020a031660009081526006602052604090205460ff1690565b60035460009033600160a060020a03908116911614610c5357600080fd5b5060005b8151811015610cac57600060066000848481518110610c7257fe5b90602001906020020151600160a060020a031681526020810191909152604001600020805460ff1916911515919091179055600101610c57565b5050565b6000610cba6113a6565b610cc384611062565b15610cda57610cd384848361106a565b9150610ce5565b610cd384848361125b565b5092915050565b600c5481565b6000610cfd84611062565b15610d1457610d0d84848461106a565b9050610a83565b610d0d84848461125b565b60035460009033600160a060020a03908116911614610d3d57600080fd5b5060005b8151811015610cac57600160066000848481518110610d5c57fe5b90602001906020020151600160a060020a031681526020810191909152604001600020805460ff1916911515919091179055600101610d41565b600160a060020a03918216600090815260056020908152604080832093909416825291909152205490565b600160a060020a031660009081526007602052604090205490565b60035433600160a060020a03908116911614610df757600080fd5b6000805460ff19166001179055565b6000610e1185611062565b156110435783610e2033610baa565b1015610e2b57600080fd5b610e3d610e3733610baa565b85611379565b600160a060020a033316600090815260046020526040902055610e68610e6286610baa565b8561138e565b600160a060020a0386166000818152600460205260408082209390935590918490518082805190602001908083835b60208310610eb65780518252601f199092019160209182019101610e97565b6001836020036101000a0380198251168184511617909252505050919091019250604091505051809103902060e060020a9004903387876040518563ffffffff1660e060020a0281526004018084600160a060020a0316600160a060020a03168152602001838152602001828051906020019080838360005b83811015610f47578082015183820152602001610f2f565b50505050905090810190601f168015610f745780820380516001836020036101000a031916815260200191505b50935050505060006040518083038185886187965a03f193505050501515610f9857fe5b826040518082805190602001908083835b60208310610fc85780518252601f199092019160209182019101610fa9565b6001836020036101000a0380198251168184511617909252505050919091019250604091505051809103902085600160a060020a031633600160a060020a03167fe19260aff97b920c7df27010903aeb9c8d2be5d310a2c67824cf3f15396e4c168760405190815260200160405180910390a4506001611051565b61104e85858561125b565b90505b949350505050565b60005460ff1681565b6000903b1190565b6000808361107733610baa565b101561108257600080fd5b61108e610e3733610baa565b600160a060020a0333166000908152600460205260409020556110b3610e6286610baa565b600160a060020a03861660008181526004602052604090819020929092558692509063c0ee0b8a90339087908790518463ffffffff1660e060020a0281526004018084600160a060020a0316600160a060020a0316815260200183815260200180602001828103825283818151815260200191508051906020019080838360005b8381101561114c578082015183820152602001611134565b50505050905090810190601f1680156111795780820380516001836020036101000a031916815260200191505b50945050505050600060405180830381600087803b151561119957600080fd5b6102c65a03f115156111aa57600080fd5b505050826040518082805190602001908083835b602083106111dd5780518252601f1990920191602091820191016111be565b6001836020036101000a0380198251168184511617909252505050919091019250604091505051809103902085600160a060020a031633600160a060020a03167fe19260aff97b920c7df27010903aeb9c8d2be5d310a2c67824cf3f15396e4c168760405190815260200160405180910390a4506001949350505050565b60008261126733610baa565b101561127257600080fd5b61128461127e33610baa565b84611379565b600160a060020a0333166000908152600460205260409020556112af6112a985610baa565b8461138e565b600160a060020a03851660009081526004602052604090819020919091558290518082805190602001908083835b602083106112fc5780518252601f1990920191602091820191016112dd565b6001836020036101000a0380198251168184511617909252505050919091019250604091505051809103902084600160a060020a031633600160a060020a03167fe19260aff97b920c7df27010903aeb9c8d2be5d310a2c67824cf3f15396e4c168660405190815260200160405180910390a45060019392505050565b60008183101561138857600080fd5b50900390565b600081600019038311156113a157600080fd5b500190565b602060405190810160405260008152905600a165627a7a7230582095709c14fa55f5123b8f2ccbae1eabc4b1964895309dc23627dbaf22296720d50029",
  "source": "pragma solidity ^0.4.18;\r\n\r\n// ----------------------------------------------------------------------------------------------\r\n// Kryptor Token by Kryptor Limited.\r\n// An ERC20 standard\r\n//\r\n// author: Kryptor Team\r\n// Contact: datwhnguyen@gmail.com\r\n\r\n/// contract receiver interface\r\ncontract ContractReceiver {\r\n     \r\n    struct TKN {\r\n        address sender;\r\n        uint value;\r\n        bytes data;\r\n        bytes4 sig;\r\n    }\r\n    \r\n    \r\n    function tokenFallback(address _from, uint _value, bytes _data) public pure {\r\n      TKN memory tkn;\r\n      tkn.sender = _from;\r\n      tkn.value = _value;\r\n      tkn.data = _data;\r\n      uint32 u = uint32(_data[3]) + (uint32(_data[2]) << 8) + (uint32(_data[1]) << 16) + (uint32(_data[0]) << 24);\r\n      tkn.sig = bytes4(u);\r\n      \r\n      /* tkn variable is analogue of msg variable of Ether transaction\r\n      *  tkn.sender is person who initiated this token transaction   (analogue of msg.sender)\r\n      *  tkn.value the number of tokens that were sent   (analogue of msg.value)\r\n      *  tkn.data is data of token transaction   (analogue of msg.data)\r\n      *  tkn.sig is 4 bytes signature of function\r\n      *  if data of token transaction is a function execution\r\n      */\r\n    }\r\n}\r\n\r\n /* https://github.com/LykkeCity/EthereumApiDotNetCore/blob/master/src/ContractBuilder/contracts/token/SafeMath.sol */\r\ncontract SafeMath {\r\n    uint256 constant public MAX_UINT256 =\r\n    0xFFFFFFFFFFFFFFFFFFFFFFFFFFFFFFFFFFFFFFFFFFFFFFFFFFFFFFFFFFFFFFFF;\r\n\r\n    function safeAdd(uint256 x, uint256 y) pure internal returns (uint256 z) {\r\n        if (x > MAX_UINT256 - y) revert();\r\n        return x + y;\r\n    }\r\n\r\n    function safeSub(uint256 x, uint256 y) pure internal returns (uint256 z) {\r\n        if (x < y) revert();\r\n        return x - y;\r\n    }\r\n\r\n    function safeMul(uint256 x, uint256 y) pure internal returns (uint256 z) {\r\n        if (y == 0) return 0;\r\n        if (x > MAX_UINT256 / y) revert();\r\n        return x * y;\r\n    }\r\n}\r\n\r\ncontract ERC223Interface {\r\n    // Get the total token supply\r\n    function totalSupply() public constant returns (uint256 _totalSupply);\r\n \r\n    // Get the account balance of another account with address _owner\r\n    function balanceOf(address _owner) public constant returns (uint256 balance);\r\n \r\n    // Send _value amount of tokens to address _to\r\n    function transfer(address _to, uint256 _value) public returns (bool success);\r\n    function transfer(address to, uint value, bytes data) public returns (bool ok);\r\n    function transfer(address to, uint value, bytes data, string custom_fallback) public returns (bool ok);\r\n    \r\n    // transfer _value amount of token approved by address _from\r\n    function transferFrom(address _from, address _to, uint256 _value) public returns (bool success);\r\n\r\n    // approve an address with _value amount of tokens\r\n    function approve(address _spender, uint256 _value) public returns (bool success);\r\n\r\n    // get remaining token approved by _owner to _spender\r\n    function allowance(address _owner, address _spender) public constant returns (uint256 remaining);\r\n  \r\n    // Triggered when tokens are transferred.\r\n    event Transfer(address indexed _from, address indexed _to, uint256 _value);\r\n    event Transfer(address indexed _from, address indexed _to, uint _value, bytes indexed data);\r\n \r\n    // Triggered whenever approve(address _spender, uint256 _value) is called.\r\n    event Approval(address indexed _owner, address indexed _spender, uint256 _value);\r\n}\r\n \r\ncontract Kryptor is ERC223Interface, SafeMath {\r\n    uint256 public constant decimals = 10;\r\n\r\n    string public constant symbol = \"KTO\";\r\n    string public constant name = \"Kryptor\";\r\n\r\n    bool public _selling = true;//initial selling\r\n    uint256 public _totalSupply = 10 ** 19; // total supply is 10^19 unit, equivalent to 10^9 Kryptor\r\n    uint256 public _originalBuyPrice = 43 * 10**12; // original buy 1ETH = 4300 Kryptor = 43 * 10**12 unit\r\n\r\n    // Owner of this contract\r\n    address public owner;\r\n \r\n    // Balances Kryptor for each account\r\n    mapping(address => uint256) private balances;\r\n    \r\n    // Owner of account approves the transfer of an amount to another account\r\n    mapping(address => mapping (address => uint256)) private allowed;\r\n\r\n    // List of approved investors\r\n    mapping(address => bool) private approvedInvestorList;\r\n    \r\n    // deposit\r\n    mapping(address => uint256) private deposit;\r\n    \r\n    // icoPercent\r\n    uint256 public _icoPercent = 10;\r\n    \r\n    // _icoSupply is the avalable unit. Initially, it is _totalSupply\r\n    uint256 public _icoSupply = _totalSupply * _icoPercent / 100;\r\n    \r\n    // minimum buy 0.3 ETH\r\n    uint256 public _minimumBuy = 3 * 10 ** 17;\r\n    \r\n    // maximum buy 25 ETH\r\n    uint256 public _maximumBuy = 25 * 10 ** 18;\r\n\r\n    // totalTokenSold\r\n    uint256 public totalTokenSold = 0;\r\n    \r\n    // tradable\r\n    bool public tradable = false;\r\n    \r\n    /**\r\n     * Functions with this modifier can only be executed by the owner\r\n     */\r\n    modifier onlyOwner() {\r\n        require(msg.sender == owner);\r\n        _;\r\n    }\r\n\r\n    /**\r\n     * Functions with this modifier check on sale status\r\n     * Only allow sale if _selling is on\r\n     */\r\n    modifier onSale() {\r\n        require(_selling);\r\n        _;\r\n    }\r\n    \r\n    /**\r\n     * Functions with this modifier check the validity of address is investor\r\n     */\r\n    modifier validInvestor() {\r\n        require(approvedInvestorList[msg.sender]);\r\n        _;\r\n    }\r\n    \r\n    /**\r\n     * Functions with this modifier check the validity of msg value\r\n     * value must greater than equal minimumBuyPrice\r\n     * total deposit must less than equal maximumBuyPrice\r\n     */\r\n    modifier validValue(){\r\n        // require value >= _minimumBuy AND total deposit of msg.sender <= maximumBuyPrice\r\n        require ( (msg.value >= _minimumBuy) &&\r\n                ( (deposit[msg.sender] + msg.value) <= _maximumBuy) );\r\n        _;\r\n    }\r\n    \r\n    /**\r\n     * \r\n     */\r\n    modifier isTradable(){\r\n        require(tradable == true || msg.sender == owner);\r\n        _;\r\n    }\r\n\r\n    /// @dev Fallback function allows to buy ether.\r\n    function()\r\n        public\r\n        payable {\r\n        buyKryptor();\r\n    }\r\n    \r\n    /// @dev buy function allows to buy ether. for using optional data\r\n    function buyKryptor()\r\n        public\r\n        payable\r\n        onSale\r\n        validValue\r\n        validInvestor {\r\n        uint256 requestedUnits = (msg.value * _originalBuyPrice) / 10**18;\r\n        require(balances[owner] >= requestedUnits);\r\n        // prepare transfer data\r\n        balances[owner] -= requestedUnits;\r\n        balances[msg.sender] += requestedUnits;\r\n        \r\n        // increase total deposit amount\r\n        deposit[msg.sender] += msg.value;\r\n        \r\n        // check total and auto turnOffSale\r\n        totalTokenSold += requestedUnits;\r\n        if (totalTokenSold >= _icoSupply){\r\n            _selling = false;\r\n        }\r\n        \r\n        // submit transfer\r\n        Transfer(owner, msg.sender, requestedUnits);\r\n        owner.transfer(msg.value);\r\n    }\r\n\r\n    /// @dev Constructor\r\n    function Kryptor() \r\n        public {\r\n        owner = msg.sender;\r\n        setBuyPrice(_originalBuyPrice);\r\n        balances[owner] = _totalSupply;\r\n        Transfer(0x0, owner, _totalSupply);\r\n    }\r\n    \r\n    /// @dev Gets totalSupply\r\n    /// @return Total supply\r\n    function totalSupply()\r\n        public \r\n        constant \r\n        returns (uint256) {\r\n        return _totalSupply;\r\n    }\r\n    \r\n    /// @dev Enables sale \r\n    function turnOnSale() onlyOwner \r\n        public {\r\n        _selling = true;\r\n    }\r\n\r\n    /// @dev Disables sale\r\n    function turnOffSale() onlyOwner \r\n        public {\r\n        _selling = false;\r\n    }\r\n    \r\n    function turnOnTradable() \r\n        public\r\n        onlyOwner{\r\n        tradable = true;\r\n    }\r\n    \r\n    /// @dev set new icoPercent\r\n    /// @param newIcoPercent new value of icoPercent\r\n    function setIcoPercent(uint256 newIcoPercent)\r\n        public \r\n        onlyOwner {\r\n        _icoPercent = newIcoPercent;\r\n        _icoSupply = _totalSupply * _icoPercent / 100;\r\n    }\r\n    \r\n    /// @dev set new _maximumBuy\r\n    /// @param newMaximumBuy new value of _maximumBuy\r\n    function setMaximumBuy(uint256 newMaximumBuy)\r\n        public \r\n        onlyOwner {\r\n        _maximumBuy = newMaximumBuy;\r\n    }\r\n\r\n    /// @dev Updates buy price (owner ONLY)\r\n    /// @param newBuyPrice New buy price (in UNIT) 1ETH <=> 10 000 0000000000 unit\r\n    function setBuyPrice(uint256 newBuyPrice) \r\n        onlyOwner \r\n        public {\r\n        require(newBuyPrice>0);\r\n        _originalBuyPrice = newBuyPrice; // unit\r\n        // control _maximumBuy_USD = 10,000 USD, Kryptor price is 0.1USD\r\n        // maximumBuy_Kryptor = 100,000 Kryptor = 100,000,0000000000 unit = 10^15\r\n        _maximumBuy = 10**18 * 10**15 /_originalBuyPrice;\r\n    }\r\n        \r\n    /// @dev Gets account's balance\r\n    /// @param _addr Address of the account\r\n    /// @return Account balance\r\n    function balanceOf(address _addr) \r\n        public\r\n        constant \r\n        returns (uint256) {\r\n        return balances[_addr];\r\n    }\r\n    \r\n    /// @dev check address is approved investor\r\n    /// @param _addr address\r\n    function isApprovedInvestor(address _addr)\r\n        public\r\n        constant\r\n        returns (bool) {\r\n        return approvedInvestorList[_addr];\r\n    }\r\n    \r\n    /// @dev get ETH deposit\r\n    /// @param _addr address get deposit\r\n    /// @return amount deposit of an buyer\r\n    function getDeposit(address _addr)\r\n        public\r\n        constant\r\n        returns(uint256){\r\n        return deposit[_addr];\r\n}\r\n    \r\n    /// @dev Adds list of new investors to the investors list and approve all\r\n    /// @param newInvestorList Array of new investors addresses to be added\r\n    function addInvestorList(address[] newInvestorList)\r\n        onlyOwner\r\n        public {\r\n        for (uint256 i = 0; i < newInvestorList.length; i++){\r\n            approvedInvestorList[newInvestorList[i]] = true;\r\n        }\r\n    }\r\n\r\n    /// @dev Removes list of investors from list\r\n    /// @param investorList Array of addresses of investors to be removed\r\n    function removeInvestorList(address[] investorList)\r\n        onlyOwner\r\n        public {\r\n        for (uint256 i = 0; i < investorList.length; i++){\r\n            approvedInvestorList[investorList[i]] = false;\r\n        }\r\n    }\r\n    \r\n    //assemble the given address bytecode. If bytecode exists then the _addr is a contract.\r\n    function isContract(address _addr) private view returns (bool is_contract) {\r\n        uint length;\r\n        assembly {\r\n            //retrieve the size of the code on target address, this needs assembly\r\n            length := extcodesize(_addr)\r\n        }\r\n        return (length>0);\r\n    }\r\n \r\n    /// @dev Transfers the balance from msg.sender to an account\r\n    /// @param _to Recipient address\r\n    /// @param _value Transfered amount in unit\r\n    /// @return Transfer status\r\n    // Standard function transfer similar to ERC20 transfer with no _data .\r\n    // Added due to backwards compatibility reasons .\r\n    function transfer(address _to, uint _value) public returns (bool success) {\r\n      \r\n        //standard function transfer similar to ERC20 transfer with no _data\r\n        //added due to backwards compatibility reasons\r\n        bytes memory empty;\r\n        if(isContract(_to)) {\r\n            return transferToContract(_to, _value, empty);\r\n        }\r\n        else {\r\n            return transferToAddress(_to, _value, empty);\r\n        }\r\n    }\r\n    \r\n    // Function that is called when a user or another contract wants to transfer funds .\r\n    function transfer(address _to, uint _value, bytes _data) public returns (bool success) {\r\n      \r\n        if(isContract(_to)) {\r\n            return transferToContract(_to, _value, _data);\r\n        }\r\n        else {\r\n            return transferToAddress(_to, _value, _data);\r\n        }\r\n    }\r\n    \r\n    // Function that is called when a user or another contract wants to transfer funds .\r\n    function transfer(address _to, uint _value, bytes _data, string _custom_fallback) \r\n    public \r\n    returns (bool success) {\r\n        if(isContract(_to)) {\r\n            if (balanceOf(msg.sender) < _value) revert();\r\n            balances[msg.sender] = safeSub(balanceOf(msg.sender), _value);\r\n            balances[_to] = safeAdd(balanceOf(_to), _value);\r\n            assert(_to.call.value(0)(bytes4(keccak256(_custom_fallback)), msg.sender, _value, _data));\r\n            Transfer(msg.sender, _to, _value, _data);\r\n            return true;\r\n        }\r\n        else {\r\n            return transferToAddress(_to, _value, _data);\r\n        }\r\n    }\r\n    \r\n    //function that is called when transaction target is an address\r\n    function transferToAddress(address _to, uint _value, bytes _data) private returns (bool success) {\r\n        if (balanceOf(msg.sender) < _value) revert();\r\n        balances[msg.sender] = safeSub(balanceOf(msg.sender), _value);\r\n        balances[_to] = safeAdd(balanceOf(_to), _value);\r\n        Transfer(msg.sender, _to, _value, _data);\r\n        return true;\r\n    }\r\n    \r\n      //function that is called when transaction target is a contract\r\n     function transferToContract(address _to, uint _value, bytes _data) private returns (bool success) {\r\n        if (balanceOf(msg.sender) < _value) revert();\r\n        balances[msg.sender] = safeSub(balanceOf(msg.sender), _value);\r\n        balances[_to] = safeAdd(balanceOf(_to), _value);\r\n        ContractReceiver receiver = ContractReceiver(_to);\r\n        receiver.tokenFallback(msg.sender, _value, _data);\r\n        Transfer(msg.sender, _to, _value, _data);\r\n        return true;\r\n    }\r\n     \r\n    // Send _value amount of tokens from address _from to address _to\r\n    // The transferFrom method is used for a withdraw workflow, allowing contracts to send\r\n    // tokens on your behalf, for example to \"deposit\" to a contract address and/or to charge\r\n    // fees in sub-currencies; the command should fail unless the _from account has\r\n    // deliberately authorized the sender of the message via some mechanism; we propose\r\n    // these standardized APIs for approval:\r\n    function transferFrom(\r\n        address _from,\r\n        address _to,\r\n        uint256 _amount\r\n    )\r\n    public\r\n    isTradable\r\n    returns (bool success) {\r\n        if (balances[_from] >= _amount\r\n            && allowed[_from][msg.sender] >= _amount\r\n            && _amount > 0\r\n            && balances[_to] + _amount > balances[_to]) {\r\n            balances[_from] -= _amount;\r\n            allowed[_from][msg.sender] -= _amount;\r\n            balances[_to] += _amount;\r\n            Transfer(_from, _to, _amount);\r\n            return true;\r\n        } else {\r\n            return false;\r\n        }\r\n    }\r\n    \r\n    // Allow _spender to withdraw from your account, multiple times, up to the _value amount.\r\n    // If this function is called again it overwrites the current allowance with _value.\r\n    function approve(address _spender, uint256 _amount) \r\n        public\r\n        isTradable\r\n        returns (bool success) {\r\n        allowed[msg.sender][_spender] = _amount;\r\n        Approval(msg.sender, _spender, _amount);\r\n        return true;\r\n    }\r\n    \r\n    // get allowance\r\n    function allowance(address _owner, address _spender) \r\n        public\r\n        constant \r\n        returns (uint256 remaining) {\r\n        return allowed[_owner][_spender];\r\n    }\r\n    \r\n    /// @dev Withdraws Ether in contract (Owner only)\r\n    /// @return Status of withdrawal\r\n    function withdraw() onlyOwner \r\n        public \r\n        returns (bool) {\r\n        return owner.send(this.balance);\r\n    }\r\n}\r\n\r\n/// @title Multisignature wallet - Allows multiple parties to agree on transactions before execution.\r\n/// @author Stefan George - <stefan.george@consensys.net>\r\ncontract MultiSigWallet {\r\n\r\n    uint constant public MAX_OWNER_COUNT = 50;\r\n\r\n    event Confirmation(address indexed sender, uint indexed transactionId);\r\n    event Revocation(address indexed sender, uint indexed transactionId);\r\n    event Submission(uint indexed transactionId);\r\n    event Execution(uint indexed transactionId);\r\n    event ExecutionFailure(uint indexed transactionId);\r\n    event Deposit(address indexed sender, uint value);\r\n    event OwnerAddition(address indexed owner);\r\n    event OwnerRemoval(address indexed owner);\r\n    event RequirementChange(uint required);\r\n    event CoinCreation(address coin);\r\n\r\n    mapping (uint => Transaction) public transactions;\r\n    mapping (uint => mapping (address => bool)) public confirmations;\r\n    mapping (address => bool) public isOwner;\r\n    address[] public owners;\r\n    uint public required;\r\n    uint public transactionCount;\r\n    bool flag = true;\r\n\r\n    struct Transaction {\r\n        address destination;\r\n        uint value;\r\n        bytes data;\r\n        bool executed;\r\n    }\r\n\r\n    modifier onlyWallet() {\r\n        if (msg.sender != address(this))\r\n            revert();\r\n        _;\r\n    }\r\n\r\n    modifier ownerDoesNotExist(address owner) {\r\n        if (isOwner[owner])\r\n            revert();\r\n        _;\r\n    }\r\n\r\n    modifier ownerExists(address owner) {\r\n        if (!isOwner[owner])\r\n            revert();\r\n        _;\r\n    }\r\n\r\n    modifier transactionExists(uint transactionId) {\r\n        if (transactions[transactionId].destination == 0)\r\n            revert();\r\n        _;\r\n    }\r\n\r\n    modifier confirmed(uint transactionId, address owner) {\r\n        if (!confirmations[transactionId][owner])\r\n            revert();\r\n        _;\r\n    }\r\n\r\n    modifier notConfirmed(uint transactionId, address owner) {\r\n        if (confirmations[transactionId][owner])\r\n            revert();\r\n        _;\r\n    }\r\n\r\n    modifier notExecuted(uint transactionId) {\r\n        if (transactions[transactionId].executed)\r\n            revert();\r\n        _;\r\n    }\r\n\r\n    modifier notNull(address _address) {\r\n        if (_address == 0)\r\n            revert();\r\n        _;\r\n    }\r\n\r\n    modifier validRequirement(uint ownerCount, uint _required) {\r\n        if (   ownerCount > MAX_OWNER_COUNT\r\n            || _required > ownerCount\r\n            || _required == 0\r\n            || ownerCount == 0)\r\n            revert();\r\n        _;\r\n    }\r\n\r\n    /// @dev Fallback function allows to deposit ether.\r\n    function()\r\n        payable\r\n    {\r\n        if (msg.value > 0)\r\n            Deposit(msg.sender, msg.value);\r\n    }\r\n\r\n    /*\r\n     * Public functions\r\n     */\r\n    /// @dev Contract constructor sets initial owners and required number of confirmations.\r\n    /// @param _owners List of initial owners.\r\n    /// @param _required Number of required confirmations.\r\n    function MultiSigWallet(address[] _owners, uint _required)\r\n        public\r\n        validRequirement(_owners.length, _required)\r\n    {\r\n        for (uint i=0; i<_owners.length; i++) {\r\n            if (isOwner[_owners[i]] || _owners[i] == 0)\r\n                revert();\r\n            isOwner[_owners[i]] = true;\r\n        }\r\n        owners = _owners;\r\n        required = _required;\r\n    }\r\n\r\n    /// @dev Allows to add a new owner. Transaction has to be sent by wallet.\r\n    /// @param owner Address of new owner.\r\n    function addOwner(address owner)\r\n        public\r\n        onlyWallet\r\n        ownerDoesNotExist(owner)\r\n        notNull(owner)\r\n        validRequirement(owners.length + 1, required)\r\n    {\r\n        isOwner[owner] = true;\r\n        owners.push(owner);\r\n        OwnerAddition(owner);\r\n    }\r\n\r\n    /// @dev Allows to remove an owner. Transaction has to be sent by wallet.\r\n    /// @param owner Address of owner.\r\n    function removeOwner(address owner)\r\n        public\r\n        onlyWallet\r\n        ownerExists(owner)\r\n    {\r\n        isOwner[owner] = false;\r\n        for (uint i=0; i<owners.length - 1; i++)\r\n            if (owners[i] == owner) {\r\n                owners[i] = owners[owners.length - 1];\r\n                break;\r\n            }\r\n        owners.length -= 1;\r\n        if (required > owners.length)\r\n            changeRequirement(owners.length);\r\n        OwnerRemoval(owner);\r\n    }\r\n\r\n    /// @dev Allows to replace an owner with a new owner. Transaction has to be sent by wallet.\r\n    /// @param owner Address of owner to be replaced.\r\n    /// @param owner Address of new owner.\r\n    function replaceOwner(address owner, address newOwner)\r\n        public\r\n        onlyWallet\r\n        ownerExists(owner)\r\n        ownerDoesNotExist(newOwner)\r\n    {\r\n        for (uint i=0; i<owners.length; i++)\r\n            if (owners[i] == owner) {\r\n                owners[i] = newOwner;\r\n                break;\r\n            }\r\n        isOwner[owner] = false;\r\n        isOwner[newOwner] = true;\r\n        OwnerRemoval(owner);\r\n        OwnerAddition(newOwner);\r\n    }\r\n\r\n    /// @dev Allows to change the number of required confirmations. Transaction has to be sent by wallet.\r\n    /// @param _required Number of required confirmations.\r\n    function changeRequirement(uint _required)\r\n        public\r\n        onlyWallet\r\n        validRequirement(owners.length, _required)\r\n    {\r\n        required = _required;\r\n        RequirementChange(_required);\r\n    }\r\n\r\n    /// @dev Allows an owner to submit and confirm a transaction.\r\n    /// @param destination Transaction target address.\r\n    /// @param value Transaction ether value.\r\n    /// @param data Transaction data payload.\r\n    /// @return Returns transaction ID.\r\n    function submitTransaction(address destination, uint value, bytes data)\r\n        public\r\n        returns (uint transactionId)\r\n    {\r\n        transactionId = addTransaction(destination, value, data);\r\n        confirmTransaction(transactionId);\r\n    }\r\n\r\n    /// @dev Allows an owner to confirm a transaction.\r\n    /// @param transactionId Transaction ID.\r\n    function confirmTransaction(uint transactionId)\r\n        public\r\n        ownerExists(msg.sender)\r\n        transactionExists(transactionId)\r\n        notConfirmed(transactionId, msg.sender)\r\n    {\r\n        confirmations[transactionId][msg.sender] = true;\r\n        Confirmation(msg.sender, transactionId);\r\n        executeTransaction(transactionId);\r\n    }\r\n\r\n    /// @dev Allows an owner to revoke a confirmation for a transaction.\r\n    /// @param transactionId Transaction ID.\r\n    function revokeConfirmation(uint transactionId)\r\n        public\r\n        ownerExists(msg.sender)\r\n        confirmed(transactionId, msg.sender)\r\n        notExecuted(transactionId)\r\n    {\r\n        confirmations[transactionId][msg.sender] = false;\r\n        Revocation(msg.sender, transactionId);\r\n    }\r\n\r\n    /// @dev Allows anyone to execute a confirmed transaction.\r\n    /// @param transactionId Transaction ID.\r\n    function executeTransaction(uint transactionId)\r\n        public\r\n        notExecuted(transactionId)\r\n    {\r\n        if (isConfirmed(transactionId)) {\r\n            Transaction tx = transactions[transactionId];\r\n            tx.executed = true;\r\n            if (tx.destination.call.value(tx.value)(tx.data))\r\n                Execution(transactionId);\r\n            else {\r\n                ExecutionFailure(transactionId);\r\n                tx.executed = false;\r\n            }\r\n        }\r\n    }\r\n\r\n    /// @dev Returns the confirmation status of a transaction.\r\n    /// @param transactionId Transaction ID.\r\n    /// @return Confirmation status.\r\n    function isConfirmed(uint transactionId)\r\n        public\r\n        constant\r\n        returns (bool)\r\n    {\r\n        uint count = 0;\r\n        for (uint i=0; i<owners.length; i++) {\r\n            if (confirmations[transactionId][owners[i]])\r\n                count += 1;\r\n            if (count == required)\r\n                return true;\r\n        }\r\n    }\r\n\r\n    /*\r\n     * Internal functions\r\n     */\r\n    /// @dev Adds a new transaction to the transaction mapping, if transaction does not exist yet.\r\n    /// @param destination Transaction target address.\r\n    /// @param value Transaction ether value.\r\n    /// @param data Transaction data payload.\r\n    /// @return Returns transaction ID.\r\n    function addTransaction(address destination, uint value, bytes data)\r\n        internal\r\n        notNull(destination)\r\n        returns (uint transactionId)\r\n    {\r\n        transactionId = transactionCount;\r\n        transactions[transactionId] = Transaction({\r\n            destination: destination,\r\n            value: value,\r\n            data: data,\r\n            executed: false\r\n        });\r\n        transactionCount += 1;\r\n        Submission(transactionId);\r\n    }\r\n\r\n    /*\r\n     * Web3 call functions\r\n     */\r\n    /// @dev Returns number of confirmations of a transaction.\r\n    /// @param transactionId Transaction ID.\r\n    /// @return Number of confirmations.\r\n    function getConfirmationCount(uint transactionId)\r\n        public\r\n        constant\r\n        returns (uint count)\r\n    {\r\n        for (uint i=0; i<owners.length; i++)\r\n            if (confirmations[transactionId][owners[i]])\r\n                count += 1;\r\n    }\r\n\r\n    /// @dev Returns total number of transactions after filers are applied.\r\n    /// @param pending Include pending transactions.\r\n    /// @param executed Include executed transactions.\r\n    /// @return Total number of transactions after filters are applied.\r\n    function getTransactionCount(bool pending, bool executed)\r\n        public\r\n        constant\r\n        returns (uint count)\r\n    {\r\n        for (uint i=0; i<transactionCount; i++)\r\n            if (   pending && !transactions[i].executed\r\n                || executed && transactions[i].executed)\r\n                count += 1;\r\n    }\r\n\r\n    /// @dev Returns list of owners.\r\n    /// @return List of owner addresses.\r\n    function getOwners()\r\n        public\r\n        constant\r\n        returns (address[])\r\n    {\r\n        return owners;\r\n    }\r\n\r\n    /// @dev Returns array with owner addresses, which confirmed transaction.\r\n    /// @param transactionId Transaction ID.\r\n    /// @return Returns array of owner addresses.\r\n    function getConfirmations(uint transactionId)\r\n        public\r\n        constant\r\n        returns (address[] _confirmations)\r\n    {\r\n        address[] memory confirmationsTemp = new address[](owners.length);\r\n        uint count = 0;\r\n        uint i;\r\n        for (i=0; i<owners.length; i++)\r\n            if (confirmations[transactionId][owners[i]]) {\r\n                confirmationsTemp[count] = owners[i];\r\n                count += 1;\r\n            }\r\n        _confirmations = new address[](count);\r\n        for (i=0; i<count; i++)\r\n            _confirmations[i] = confirmationsTemp[i];\r\n    }\r\n\r\n    /// @dev Returns list of transaction IDs in defined range.\r\n    /// @param from Index start position of transaction array.\r\n    /// @param to Index end position of transaction array.\r\n    /// @param pending Include pending transactions.\r\n    /// @param executed Include executed transactions.\r\n    /// @return Returns array of transaction IDs.\r\n    function getTransactionIds(uint from, uint to, bool pending, bool executed)\r\n        public\r\n        constant\r\n        returns (uint[] _transactionIds)\r\n    {\r\n        uint[] memory transactionIdsTemp = new uint[](transactionCount);\r\n        uint count = 0;\r\n        uint i;\r\n        for (i=0; i<transactionCount; i++)\r\n            if (   pending && !transactions[i].executed\r\n                || executed && transactions[i].executed)\r\n            {\r\n                transactionIdsTemp[count] = i;\r\n                count += 1;\r\n            }\r\n        _transactionIds = new uint[](to - from);\r\n        for (i=from; i<to; i++)\r\n            _transactionIds[i - from] = transactionIdsTemp[i];\r\n    }\r\n    \r\n    /// @dev Create new coin.\r\n    function createCoin()\r\n        external\r\n        onlyWallet\r\n    {\r\n        require(flag == true);\r\n        CoinCreation(new Kryptor());\r\n        flag = false;\r\n    }\r\n}\r\n",
  "sourcePath": "C:\\Users\\trong\\Documents\\Truffle\\Krypto\\contracts\\Krypto.sol",
  "compiler": {
    "name": "solc",
    "version": "0.4.19+commit.c4cbbb05.Emscripten.clang"
  },
  "schemaVersion": "2.0.0",
  "updatedAt": "2018-03-05T03:46:26.494Z"
}