{
  "contractName": "MultiSigWallet",
  "abi": [
    {
      "constant": true,
      "inputs": [
        {
          "name": "",
          "type": "uint256"
        }
      ],
      "name": "owners",
      "outputs": [
        {
          "name": "",
          "type": "address"
        }
      ],
      "payable": false,
      "stateMutability": "view",
      "type": "function"
    },
    {
      "constant": true,
      "inputs": [
        {
          "name": "",
          "type": "address"
        }
      ],
      "name": "isOwner",
      "outputs": [
        {
          "name": "",
          "type": "bool"
        }
      ],
      "payable": false,
      "stateMutability": "view",
      "type": "function"
    },
    {
      "constant": true,
      "inputs": [
        {
          "name": "",
          "type": "uint256"
        },
        {
          "name": "",
          "type": "address"
        }
      ],
      "name": "confirmations",
      "outputs": [
        {
          "name": "",
          "type": "bool"
        }
      ],
      "payable": false,
      "stateMutability": "view",
      "type": "function"
    },
    {
      "constant": true,
      "inputs": [
        {
          "name": "",
          "type": "uint256"
        }
      ],
      "name": "transactions",
      "outputs": [
        {
          "name": "destination",
          "type": "address"
        },
        {
          "name": "value",
          "type": "uint256"
        },
        {
          "name": "data",
          "type": "bytes"
        },
        {
          "name": "executed",
          "type": "bool"
        }
      ],
      "payable": false,
      "stateMutability": "view",
      "type": "function"
    },
    {
      "constant": true,
      "inputs": [],
      "name": "transactionCount",
      "outputs": [
        {
          "name": "",
          "type": "uint256"
        }
      ],
      "payable": false,
      "stateMutability": "view",
      "type": "function"
    },
    {
      "constant": true,
      "inputs": [],
      "name": "MAX_OWNER_COUNT",
      "outputs": [
        {
          "name": "",
          "type": "uint256"
        }
      ],
      "payable": false,
      "stateMutability": "view",
      "type": "function"
    },
    {
      "constant": true,
      "inputs": [],
      "name": "required",
      "outputs": [
        {
          "name": "",
          "type": "uint256"
        }
      ],
      "payable": false,
      "stateMutability": "view",
      "type": "function"
    },
    {
      "inputs": [
        {
          "name": "_owners",
          "type": "address[]"
        },
        {
          "name": "_required",
          "type": "uint256"
        }
      ],
      "payable": false,
      "stateMutability": "nonpayable",
      "type": "constructor"
    },
    {
      "payable": true,
      "stateMutability": "payable",
      "type": "fallback"
    },
    {
      "anonymous": false,
      "inputs": [
        {
          "indexed": true,
          "name": "sender",
          "type": "address"
        },
        {
          "indexed": true,
          "name": "transactionId",
          "type": "uint256"
        }
      ],
      "name": "Confirmation",
      "type": "event"
    },
    {
      "anonymous": false,
      "inputs": [
        {
          "indexed": true,
          "name": "sender",
          "type": "address"
        },
        {
          "indexed": true,
          "name": "transactionId",
          "type": "uint256"
        }
      ],
      "name": "Revocation",
      "type": "event"
    },
    {
      "anonymous": false,
      "inputs": [
        {
          "indexed": true,
          "name": "transactionId",
          "type": "uint256"
        }
      ],
      "name": "Submission",
      "type": "event"
    },
    {
      "anonymous": false,
      "inputs": [
        {
          "indexed": true,
          "name": "transactionId",
          "type": "uint256"
        }
      ],
      "name": "Execution",
      "type": "event"
    },
    {
      "anonymous": false,
      "inputs": [
        {
          "indexed": true,
          "name": "transactionId",
          "type": "uint256"
        }
      ],
      "name": "ExecutionFailure",
      "type": "event"
    },
    {
      "anonymous": false,
      "inputs": [
        {
          "indexed": true,
          "name": "sender",
          "type": "address"
        },
        {
          "indexed": false,
          "name": "value",
          "type": "uint256"
        }
      ],
      "name": "Deposit",
      "type": "event"
    },
    {
      "anonymous": false,
      "inputs": [
        {
          "indexed": true,
          "name": "owner",
          "type": "address"
        }
      ],
      "name": "OwnerAddition",
      "type": "event"
    },
    {
      "anonymous": false,
      "inputs": [
        {
          "indexed": true,
          "name": "owner",
          "type": "address"
        }
      ],
      "name": "OwnerRemoval",
      "type": "event"
    },
    {
      "anonymous": false,
      "inputs": [
        {
          "indexed": false,
          "name": "required",
          "type": "uint256"
        }
      ],
      "name": "RequirementChange",
      "type": "event"
    },
    {
      "anonymous": false,
      "inputs": [
        {
          "indexed": false,
          "name": "coin",
          "type": "address"
        }
      ],
      "name": "CoinCreation",
      "type": "event"
    },
    {
      "constant": false,
      "inputs": [
        {
          "name": "owner",
          "type": "address"
        }
      ],
      "name": "addOwner",
      "outputs": [],
      "payable": false,
      "stateMutability": "nonpayable",
      "type": "function"
    },
    {
      "constant": false,
      "inputs": [
        {
          "name": "owner",
          "type": "address"
        }
      ],
      "name": "removeOwner",
      "outputs": [],
      "payable": false,
      "stateMutability": "nonpayable",
      "type": "function"
    },
    {
      "constant": false,
      "inputs": [
        {
          "name": "owner",
          "type": "address"
        },
        {
          "name": "newOwner",
          "type": "address"
        }
      ],
      "name": "replaceOwner",
      "outputs": [],
      "payable": false,
      "stateMutability": "nonpayable",
      "type": "function"
    },
    {
      "constant": false,
      "inputs": [
        {
          "name": "_required",
          "type": "uint256"
        }
      ],
      "name": "changeRequirement",
      "outputs": [],
      "payable": false,
      "stateMutability": "nonpayable",
      "type": "function"
    },
    {
      "constant": false,
      "inputs": [
        {
          "name": "destination",
          "type": "address"
        },
        {
          "name": "value",
          "type": "uint256"
        },
        {
          "name": "data",
          "type": "bytes"
        }
      ],
      "name": "submitTransaction",
      "outputs": [
        {
          "name": "transactionId",
          "type": "uint256"
        }
      ],
      "payable": false,
      "stateMutability": "nonpayable",
      "type": "function"
    },
    {
      "constant": false,
      "inputs": [
        {
          "name": "transactionId",
          "type": "uint256"
        }
      ],
      "name": "confirmTransaction",
      "outputs": [],
      "payable": false,
      "stateMutability": "nonpayable",
      "type": "function"
    },
    {
      "constant": false,
      "inputs": [
        {
          "name": "transactionId",
          "type": "uint256"
        }
      ],
      "name": "revokeConfirmation",
      "outputs": [],
      "payable": false,
      "stateMutability": "nonpayable",
      "type": "function"
    },
    {
      "constant": false,
      "inputs": [
        {
          "name": "transactionId",
          "type": "uint256"
        }
      ],
      "name": "executeTransaction",
      "outputs": [],
      "payable": false,
      "stateMutability": "nonpayable",
      "type": "function"
    },
    {
      "constant": true,
      "inputs": [
        {
          "name": "transactionId",
          "type": "uint256"
        }
      ],
      "name": "isConfirmed",
      "outputs": [
        {
          "name": "",
          "type": "bool"
        }
      ],
      "payable": false,
      "stateMutability": "view",
      "type": "function"
    },
    {
      "constant": true,
      "inputs": [
        {
          "name": "transactionId",
          "type": "uint256"
        }
      ],
      "name": "getConfirmationCount",
      "outputs": [
        {
          "name": "count",
          "type": "uint256"
        }
      ],
      "payable": false,
      "stateMutability": "view",
      "type": "function"
    },
    {
      "constant": true,
      "inputs": [
        {
          "name": "pending",
          "type": "bool"
        },
        {
          "name": "executed",
          "type": "bool"
        }
      ],
      "name": "getTransactionCount",
      "outputs": [
        {
          "name": "count",
          "type": "uint256"
        }
      ],
      "payable": false,
      "stateMutability": "view",
      "type": "function"
    },
    {
      "constant": true,
      "inputs": [],
      "name": "getOwners",
      "outputs": [
        {
          "name": "",
          "type": "address[]"
        }
      ],
      "payable": false,
      "stateMutability": "view",
      "type": "function"
    },
    {
      "constant": true,
      "inputs": [
        {
          "name": "transactionId",
          "type": "uint256"
        }
      ],
      "name": "getConfirmations",
      "outputs": [
        {
          "name": "_confirmations",
          "type": "address[]"
        }
      ],
      "payable": false,
      "stateMutability": "view",
      "type": "function"
    },
    {
      "constant": true,
      "inputs": [
        {
          "name": "from",
          "type": "uint256"
        },
        {
          "name": "to",
          "type": "uint256"
        },
        {
          "name": "pending",
          "type": "bool"
        },
        {
          "name": "executed",
          "type": "bool"
        }
      ],
      "name": "getTransactionIds",
      "outputs": [
        {
          "name": "_transactionIds",
          "type": "uint256[]"
        }
      ],
      "payable": false,
      "stateMutability": "view",
      "type": "function"
    },
    {
      "constant": false,
      "inputs": [],
      "name": "createCoin",
      "outputs": [],
      "payable": false,
      "stateMutability": "nonpayable",
      "type": "function"
    }
  ],
  "bytecode": "0x60606040526006805460ff1916600117905534156200001d57600080fd5b60405162002e6238038062002e628339810160405280805182019190602001805191506000905082518260328211806200005657508181115b8062000060575080155b806200006a575081155b156200007557600080fd5b600092505b84518310156200014257600260008685815181106200009557fe5b90602001906020020151600160a060020a0316815260208101919091526040016000205460ff1680620000e55750848381518110620000d057fe5b90602001906020020151600160a060020a0316155b15620000f057600080fd5b6001600260008786815181106200010357fe5b90602001906020020151600160a060020a031681526020810191909152604001600020805460ff1916911515919091179055600192909201916200007a565b60038580516200015792916020019062000169565b50505060049190915550620001ff9050565b828054828255906000526020600020908101928215620001c3579160200282015b82811115620001c35782518254600160a060020a031916600160a060020a0391909116178255602092909201916001909101906200018a565b50620001d1929150620001d5565b5090565b620001fc91905b80821115620001d1578054600160a060020a0319168155600101620001dc565b90565b612c53806200020f6000396000f3006060604052600436106200013e5763ffffffff7c0100000000000000000000000000000000000000000000000000000000600035041663025e7c27811462000188578063173825d914620001bd57806320ea8d8614620001df5780632f54bf6e14620001f85780633411c81c146200022e5780633d03ec2914620002535780635474152514620002695780637065cb48146200029b578063784547a714620002bd5780638b51d13f14620002d65780639ace38c214620002ef578063a0e67e2b14620003b5578063a8abe69a1462000420578063b5dc40c31462000446578063b77bf600146200045f578063ba51a6df1462000475578063c01a8c84146200048e578063c642747414620004a7578063d74f8edd146200050f578063dc8452cd1462000525578063e20056e6146200053b578063ee22610b1462000563575b6000341115620001865733600160a060020a03167fe1fffcc4923d04b559f4d29a8bfc6cda04eb5b0d3c460751c2402c5c5cc9109c3460405190815260200160405180910390a25b005b34156200019457600080fd5b620001a16004356200057c565b604051600160a060020a03909116815260200160405180910390f35b3415620001c957600080fd5b62000186600160a060020a0360043516620005a5565b3415620001eb57600080fd5b6200018660043562000748565b34156200020457600080fd5b6200021a600160a060020a036004351662000829565b604051901515815260200160405180910390f35b34156200023a57600080fd5b6200021a600435600160a060020a03602435166200083e565b34156200025f57600080fd5b620001866200085e565b34156200027557600080fd5b6200028960043515156024351515620008fd565b60405190815260200160405180910390f35b3415620002a757600080fd5b62000186600160a060020a03600435166200096f565b3415620002c957600080fd5b6200021a60043562000aac565b3415620002e257600080fd5b6200028960043562000b36565b3415620002fb57600080fd5b6200030860043562000ba9565b604051600160a060020a03851681526020810184905281151560608201526080604082018181528454600260001961010060018416150201909116049183018290529060a083019085908015620003a35780601f106200037757610100808354040283529160200191620003a3565b820191906000526020600020905b8154815290600101906020018083116200038557829003601f168201915b50509550505050505060405180910390f35b3415620003c157600080fd5b620003cb62000bdd565b60405160208082528190810183818151815260200191508051906020019060200280838360005b838110156200040c578082015183820152602001620003f2565b505050509050019250505060405180910390f35b34156200042c57600080fd5b620003cb6004356024356044351515606435151562000c4a565b34156200045257600080fd5b620003cb60043562000d83565b34156200046b57600080fd5b6200028962000ef7565b34156200048157600080fd5b6200018660043562000efd565b34156200049a57600080fd5b6200018660043562000f8d565b3415620004b357600080fd5b6200028960048035600160a060020a03169060248035919060649060443590810190830135806020601f820181900481020160405190810160405281815292919060208401838380828437509496506200108095505050505050565b34156200051b57600080fd5b62000289620010a3565b34156200053157600080fd5b62000289620010a8565b34156200054757600080fd5b62000186600160a060020a0360043581169060243516620010ae565b34156200056f57600080fd5b6200018660043562001265565b60038054829081106200058b57fe5b600091825260209091200154600160a060020a0316905081565b600030600160a060020a031633600160a060020a0316141515620005c857600080fd5b600160a060020a038216600090815260026020526040902054829060ff161515620005f257600080fd5b600160a060020a0383166000908152600260205260408120805460ff1916905591505b60035460001901821015620006dc5782600160a060020a03166003838154811015156200063e57fe5b600091825260209091200154600160a060020a03161415620006d0576003805460001981019081106200066d57fe5b60009182526020909120015460038054600160a060020a0390921691849081106200069457fe5b6000918252602090912001805473ffffffffffffffffffffffffffffffffffffffff1916600160a060020a0392909216919091179055620006dc565b60019091019062000615565b600380546000190190620006f19082620014cb565b5060035460045411156200070d576003546200070d9062000efd565b82600160a060020a03167f8001553a916ef2f495d26a907cc54d96ed840d7bda71e73194bf5a9df7a76b9060405160405180910390a2505050565b33600160a060020a03811660009081526002602052604090205460ff1615156200077157600080fd5b600082815260016020908152604080832033600160a060020a038116855292529091205483919060ff161515620007a757600080fd5b600084815260208190526040902060030154849060ff1615620007c957600080fd5b6000858152600160209081526040808320600160a060020a033316808552925291829020805460ff1916905586917ff6a317157440607f36269043eb55f1287a5a19ba2216afeab88cd46cbcfb88e9905160405180910390a35050505050565b60026020526000908152604090205460ff1681565b600160209081526000928352604080842090915290825290205460ff1681565b30600160a060020a031633600160a060020a03161415156200087f57600080fd5b60065460ff1615156001146200089457600080fd5b7faae68a8a885a02fa07c5e1431d58b37a38223b24d17b8435a1942dd778bd6bef620008bf620014f2565b604051809103906000f0801515620008d657600080fd5b604051600160a060020a03909116815260200160405180910390a16006805460ff19169055565b6000805b60055481101562000968578380156200092c575060008181526020819052604090206003015460ff16155b8062000952575082801562000952575060008181526020819052604090206003015460ff165b156200095f576001820191505b60010162000901565b5092915050565b30600160a060020a031633600160a060020a03161415156200099057600080fd5b600160a060020a038116600090815260026020526040902054819060ff1615620009b957600080fd5b81600160a060020a0381161515620009d057600080fd5b6003805490506001016004546032821180620009eb57508181115b80620009f5575080155b80620009ff575081155b1562000a0a57600080fd5b600160a060020a0385166000908152600260205260409020805460ff19166001908117909155600380549091810162000a448382620014cb565b506000918252602090912001805473ffffffffffffffffffffffffffffffffffffffff1916600160a060020a0387169081179091557ff39e6e1eb0edcf53c221607b54b00cd28f3196fed0a24994dc308b8f611b682d60405160405180910390a25050505050565b600080805b60035481101562000b2f576000848152600160205260408120600380549192918490811062000adc57fe5b6000918252602080832090910154600160a060020a0316835282019290925260400190205460ff161562000b11576001820191505b60045482141562000b26576001925062000b2f565b60010162000ab1565b5050919050565b6000805b60035481101562000ba3576000838152600160205260408120600380549192918490811062000b6557fe5b6000918252602080832090910154600160a060020a0316835282019290925260400190205460ff161562000b9a576001820191505b60010162000b3a565b50919050565b6000602081905290815260409020805460018201546003830154600160a060020a0390921692909160029091019060ff1684565b62000be762001503565b600380548060200260200160405190810160405280929190818152602001828054801562000c3f57602002820191906000526020600020905b8154600160a060020a0316815260019091019060200180831162000c20575b505050505090505b90565b62000c5462001503565b62000c5e62001503565b60008060055460405180591062000c725750595b9080825280602002602001820160405250925060009150600090505b60055481101562000d0e5785801562000cb9575060008181526020819052604090206003015460ff16155b8062000cdf575084801562000cdf575060008181526020819052604090206003015460ff165b1562000d05578083838151811062000cf357fe5b60209081029091010152600191909101905b60010162000c8e565b87870360405180591062000d1f5750595b908082528060200260200182016040525093508790505b8681101562000d785782818151811062000d4c57fe5b90602001906020020151848983038151811062000d6557fe5b6020908102909101015260010162000d36565b505050949350505050565b62000d8d62001503565b62000d9762001503565b600354600090819060405180591062000dad5750595b9080825280602002602001820160405250925060009150600090505b60035481101562000e7b576000858152600160205260408120600380549192918490811062000df457fe5b6000918252602080832090910154600160a060020a0316835282019290925260400190205460ff161562000e7257600380548290811062000e3157fe5b600091825260209091200154600160a060020a031683838151811062000e5357fe5b600160a060020a03909216602092830290910190910152600191909101905b60010162000dc9565b8160405180591062000e8a5750595b90808252806020026020018201604052509350600090505b8181101562000eef5782818151811062000eb857fe5b9060200190602002015184828151811062000ecf57fe5b600160a060020a0390921660209283029091019091015260010162000ea2565b505050919050565b60055481565b30600160a060020a031633600160a060020a031614151562000f1e57600080fd5b60035481603282118062000f3157508181115b8062000f3b575080155b8062000f45575081155b1562000f5057600080fd5b60048390557fa3f1ee9126a074d9326c682f561767f710e927faa811f7a99829d49dc421797a8360405190815260200160405180910390a1505050565b33600160a060020a03811660009081526002602052604090205460ff16151562000fb657600080fd5b6000828152602081905260409020548290600160a060020a0316151562000fdc57600080fd5b600083815260016020908152604080832033600160a060020a038116855292529091205484919060ff16156200101157600080fd5b6000858152600160208181526040808420600160a060020a033316808652925292839020805460ff191690921790915586917f4a504a94899432a9846e1aa406dceb1bcfd538bb839071d49d1e5e23f5be30ef905160405180910390a3620010798562001265565b5050505050565b60006200108f848484620013cb565b90506200109c8162000f8d565b9392505050565b603281565b60045481565b600030600160a060020a031633600160a060020a0316141515620010d157600080fd5b600160a060020a038316600090815260026020526040902054839060ff161515620010fb57600080fd5b600160a060020a038316600090815260026020526040902054839060ff16156200112457600080fd5b600092505b600354831015620011c35784600160a060020a03166003848154811015156200114e57fe5b600091825260209091200154600160a060020a03161415620011b757836003848154811015156200117b57fe5b6000918252602090912001805473ffffffffffffffffffffffffffffffffffffffff1916600160a060020a0392909216919091179055620011c3565b60019092019162001129565b600160a060020a03808616600081815260026020526040808220805460ff199081169091559388168252908190208054909316600117909255907f8001553a916ef2f495d26a907cc54d96ed840d7bda71e73194bf5a9df7a76b90905160405180910390a283600160a060020a03167ff39e6e1eb0edcf53c221607b54b00cd28f3196fed0a24994dc308b8f611b682d60405160405180910390a25050505050565b600081815260208190526040812060030154829060ff16156200128757600080fd5b620012928362000aac565b15620013c6576000838152602081905260409081902060038101805460ff19166001908117909155815490820154919450600160a060020a0316916002850190518082805460018160011615610100020316600290048015620013395780601f106200130d5761010080835404028352916020019162001339565b820191906000526020600020905b8154815290600101906020018083116200131b57829003601f168201915b505091505060006040518083038185876187965a03f192505050156200138c57827f33e13ecb54c3076d8e8bb8c2881800a4d972b792045ffae98fdf46df365fed7560405160405180910390a2620013c6565b827f526441bb6c1aba3c9a4a6ca1d6545da9c2333c8c48343ef398eb858d72b7923660405160405180910390a260038201805460ff191690555b505050565b600083600160a060020a0381161515620013e457600080fd5b600554915060806040519081016040908152600160a060020a0387168252602080830187905281830186905260006060840181905285815290819052208151815473ffffffffffffffffffffffffffffffffffffffff1916600160a060020a0391909116178155602082015181600101556040820151816002019080516200147192916020019062001515565b506060820151600391909101805460ff191691151591909117905550600580546001019055817fc0ba8fe4b176c1714197d43b9cc6bcf797a4a7461c5fe8d0ef6e184ae7601e5160405160405180910390a2509392505050565b815481835581811511620013c657600083815260209020620013c69181019083016200159a565b60405161167080620015b883390190565b60206040519081016040526000815290565b828054600181600116156101000203166002900490600052602060002090601f016020900481019282601f106200155857805160ff191683800117855562001588565b8280016001018555821562001588579182015b82811115620015885782518255916020019190600101906200156b565b50620015969291506200159a565b5090565b62000c4791905b80821115620015965760008155600101620015a156006060604052678ac7230489e800006000556001805460a060020a60ff02191681556004805460ff1916909117905565271bb7b9b000600555600a600855606468056bc75e2d6310000004600955670429d069189e0000600a5568015af1d78b58c40000600b556000600c55341561007557600080fd5b60018054600160a060020a03191633600160a060020a0390811691909117808355600080549183168152600260205260408082208390559354909216927fddf252ad1be2c89b69c2b068fc378daa952ba7f163c4a11628f55a4df523b3ef91905190815260200160405180910390a361010260055461010764010000000002610b52176401000000009004565b610154565b60015433600160a060020a0390811691161461012257600080fd5b6000811161012f57600080fd5b6005819055806d314dc6448d9338c15b0a0000000081151561014d57fe5b04600b5550565b61150d806101636000396000f3006060604052600436106101925763ffffffff60e060020a6000350416630188fdef811461019c57806306fdde03146101b2578063095ea7b31461023c57806318160ddd1461027257806323526a341461029757806323b872dd146102aa5780632fb1746d146102d2578063313ce567146102e55780633c2d6447146102f85780633c50afe11461030e5780633ccfd60b146103215780633eaaf86b14610334578063501e3a2c1461034757806354840c6e1461035a57806363ae8d6c1461036d5780636b342eb81461038357806370a082311461039657806378f2144b146103b55780637fd2304f146103c857806380ccf6ab146101925780638da5cb5b146103db57806395d89b411461040a5780639b1fe0d41461041d5780639fc395491461043c578063a9059cbb1461048b578063b5f7f636146104ad578063be45fd62146104c0578063bfb9f08814610525578063dc39d06d14610574578063dd62ed3e14610596578063e1254fba146105bb578063e98cf987146105da578063f6368f8a146105ed578063f9323a3214610694575b61019a6106a7565b005b34156101a757600080fd5b61019a60043561082f565b34156101bd57600080fd5b6101c561084f565b60405160208082528190810183818151815260200191508051906020019080838360005b838110156102015780820151838201526020016101e9565b50505050905090810190601f16801561022e5780820380516001836020036101000a031916815260200191505b509250505060405180910390f35b341561024757600080fd5b61025e600160a060020a0360043516602435610886565b604051901515815260200160405180910390f35b341561027d57600080fd5b6102856108f3565b60405190815260200160405180910390f35b34156102a257600080fd5b61019a6108f9565b34156102b557600080fd5b61025e600160a060020a0360043581169060243516604435610920565b34156102dd57600080fd5b61019a610a6d565b34156102f057600080fd5b610285610aae565b341561030357600080fd5b61019a600435610ab3565b341561031957600080fd5b610285610ae0565b341561032c57600080fd5b61025e610ae6565b341561033f57600080fd5b610285610b36565b341561035257600080fd5b610285610b3c565b341561036557600080fd5b61025e610b42565b341561037857600080fd5b61019a600435610b52565b341561038e57600080fd5b610285610b9f565b34156103a157600080fd5b610285600160a060020a0360043516610ba5565b34156103c057600080fd5b610285610bc0565b34156103d357600080fd5b610285610bc6565b34156103e657600080fd5b6103ee610bcc565b604051600160a060020a03909116815260200160405180910390f35b341561041557600080fd5b6101c5610bdb565b341561042857600080fd5b61025e600160a060020a0360043516610c12565b341561044757600080fd5b61019a6004602481358181019083013580602081810201604051908101604052809392919081815260200183836020028082843750949650610c3095505050505050565b341561049657600080fd5b61025e600160a060020a0360043516602435610cab565b34156104b857600080fd5b610285610d1c565b34156104cb57600080fd5b61025e60048035600160a060020a03169060248035919060649060443590810190830135806020601f82018190048102016040519081016040528181529291906020840183838082843750949650610d2295505050505050565b341561053057600080fd5b61019a6004602481358181019083013580602081810201604051908101604052809392919081815260200183836020028082843750949650610d8695505050505050565b341561057f57600080fd5b61025e600160a060020a0360043516602435610dfd565b34156105a157600080fd5b610285600160a060020a0360043581169060243516610e9f565b34156105c657600080fd5b610285600160a060020a0360043516610eca565b34156105e557600080fd5b61019a610ee5565b34156105f857600080fd5b61025e60048035600160a060020a03169060248035919060649060443590810190830135806020601f8201819004810201604051908101604052818152929190602084018383808284378201915050505050509190803590602001908201803590602001908080601f016020809104026020016040519081016040528181529291906020840183838082843750949650610f0f95505050505050565b341561069f57600080fd5b61025e6111a7565b60045460009060ff1615156106bb57600080fd5b600a5434101580156106e95750600b54600160a060020a033316600090815260076020526040902054340111155b15156106f457600080fd5b600160a060020a03331660009081526006602052604090205460ff16151561071b57600080fd5b600554670de0b6b3a7640000903402600154600160a060020a031660009081526002602052604090205491900491508190101561075757600080fd5b600154600160a060020a039081166000908152600260209081526040808320805486900390553390931682528282208054850190556007905220805434019055600c805482019081905560095490106107b5576004805460ff191690555b600154600160a060020a0333811691167fddf252ad1be2c89b69c2b068fc378daa952ba7f163c4a11628f55a4df523b3ef8360405190815260200160405180910390a3600154600160a060020a03163480156108fc0290604051600060405180830381858888f19350505050151561082c57600080fd5b50565b60015433600160a060020a0390811691161461084a57600080fd5b600b55565b60408051908101604052600681527f4b727970746f0000000000000000000000000000000000000000000000000000602082015281565b600160a060020a03338116600081815260036020908152604080832094871680845294909152808220859055909291907f8c5be1e5ebec7d5bd14f71427d1e84f3dd0314c0f7b2291e5b200ac8c7c3b9259085905190815260200160405180910390a35060015b92915050565b60005490565b60015433600160a060020a0390811691161461091457600080fd5b6004805460ff19169055565b6001805460009160a060020a90910460ff161515148061094e575060015433600160a060020a039081169116145b151561095957600080fd5b600160a060020a038416600090815260026020526040902054610982908363ffffffff6111b016565b600160a060020a03808616600090815260026020908152604080832094909455600381528382203390931682529190915220546109c5908363ffffffff6111b016565b600160a060020a0380861660009081526003602090815260408083203385168452825280832094909455918616815260029091522054610a0b908363ffffffff6111c516565b600160a060020a03808516600081815260026020526040908190209390935591908616907fddf252ad1be2c89b69c2b068fc378daa952ba7f163c4a11628f55a4df523b3ef9085905190815260200160405180910390a35060015b9392505050565b60015433600160a060020a03908116911614610a8857600080fd5b6001805474ff0000000000000000000000000000000000000000191660a060020a179055565b600a81565b60015433600160a060020a03908116911614610ace57600080fd5b60088190556000546064910204600955565b60095481565b60015460009033600160a060020a03908116911614610b0457600080fd5b600154600160a060020a039081169030163180156108fc0290604051600060405180830381858888f194505050505090565b60005481565b60085481565b60015460a060020a900460ff1681565b60015433600160a060020a03908116911614610b6d57600080fd5b60008111610b7a57600080fd5b6005819055806d314dc6448d9338c15b0a00000000811515610b9857fe5b04600b5550565b600a5481565b600160a060020a031660009081526002602052604090205490565b60055481565b600b5481565b600154600160a060020a031681565b60408051908101604052600381527f4b52540000000000000000000000000000000000000000000000000000000000602082015281565b600160a060020a031660009081526006602052604090205460ff1690565b60015460009033600160a060020a03908116911614610c4e57600080fd5b5060005b8151811015610ca757600060066000848481518110610c6d57fe5b90602001906020020151600160a060020a031681526020810191909152604001600020805460ff1916911515919091179055600101610c52565b5050565b6000610cb56114cf565b6001805460a060020a900460ff1615151480610cdf575060015433600160a060020a039081169116145b1515610cea57600080fd5b610cf3846111d5565b15610d0a57610d038484836111dd565b9150610d15565b610d038484836113d0565b5092915050565b600c5481565b6001805460009160a060020a90910460ff1615151480610d50575060015433600160a060020a039081169116145b1515610d5b57600080fd5b610d64846111d5565b15610d7b57610d748484846111dd565b9050610a66565b610d748484846113d0565b60015460009033600160a060020a03908116911614610da457600080fd5b5060005b8151811015610ca757600160066000848481518110610dc357fe5b90602001906020020151600160a060020a031681526020810191909152604001600020805460ff1916911515919091179055600101610da8565b60015460009033600160a060020a03908116911614610e1b57600080fd5b600154600160a060020a038085169163a9059cbb91168460006040516020015260405160e060020a63ffffffff8516028152600160a060020a0390921660048301526024820152604401602060405180830381600087803b1515610e7e57600080fd5b6102c65a03f11515610e8f57600080fd5b5050506040518051949350505050565b600160a060020a03918216600090815260036020908152604080832093909416825291909152205490565b600160a060020a031660009081526007602052604090205490565b60015433600160a060020a03908116911614610f0057600080fd5b6004805460ff19166001179055565b6001805460009160a060020a90910460ff1615151480610f3d575060015433600160a060020a039081169116145b1515610f4857600080fd5b610f51856111d5565b156111915783610f6033610ba5565b1015610f6b57600080fd5b610f8484610f7833610ba5565b9063ffffffff6111b016565b600160a060020a033316600090815260026020526040902055610fb684610faa87610ba5565b9063ffffffff6111c516565b600160a060020a0386166000818152600260205260408082209390935590918490518082805190602001908083835b602083106110045780518252601f199092019160209182019101610fe5565b6001836020036101000a0380198251168184511617909252505050919091019250604091505051809103902060e060020a9004903387876040518563ffffffff1660e060020a0281526004018084600160a060020a0316600160a060020a03168152602001838152602001828051906020019080838360005b8381101561109557808201518382015260200161107d565b50505050905090810190601f1680156110c25780820380516001836020036101000a031916815260200191505b50935050505060006040518083038185886187965a03f1935050505015156110e657fe5b826040518082805190602001908083835b602083106111165780518252601f1990920191602091820191016110f7565b6001836020036101000a0380198251168184511617909252505050919091019250604091505051809103902085600160a060020a031633600160a060020a03167fe19260aff97b920c7df27010903aeb9c8d2be5d310a2c67824cf3f15396e4c168760405190815260200160405180910390a450600161119f565b61119c8585856113d0565b90505b949350505050565b60045460ff1681565b6000828211156111bf57600080fd5b50900390565b818101828110156108ed57600080fd5b6000903b1190565b600080836111ea33610ba5565b10156111f557600080fd5b61120284610f7833610ba5565b600160a060020a03331660009081526002602052604090205561122884610faa87610ba5565b600160a060020a03861660008181526002602052604090819020929092558692509063c0ee0b8a90339087908790518463ffffffff1660e060020a0281526004018084600160a060020a0316600160a060020a0316815260200183815260200180602001828103825283818151815260200191508051906020019080838360005b838110156112c15780820151838201526020016112a9565b50505050905090810190601f1680156112ee5780820380516001836020036101000a031916815260200191505b50945050505050600060405180830381600087803b151561130e57600080fd5b6102c65a03f1151561131f57600080fd5b505050826040518082805190602001908083835b602083106113525780518252601f199092019160209182019101611333565b6001836020036101000a0380198251168184511617909252505050919091019250604091505051809103902085600160a060020a031633600160a060020a03167fe19260aff97b920c7df27010903aeb9c8d2be5d310a2c67824cf3f15396e4c168760405190815260200160405180910390a4506001949350505050565b60006113df83610f7833610ba5565b600160a060020a03331660009081526002602052604090205561140583610faa86610ba5565b600160a060020a03851660009081526002602052604090819020919091558290518082805190602001908083835b602083106114525780518252601f199092019160209182019101611433565b6001836020036101000a0380198251168184511617909252505050919091019250604091505051809103902084600160a060020a031633600160a060020a03167fe19260aff97b920c7df27010903aeb9c8d2be5d310a2c67824cf3f15396e4c168660405190815260200160405180910390a45060019392505050565b602060405190810160405260008152905600a165627a7a72305820b5367507d51cbeec2ad5ee546c4b6e3301af6b2252567bf2b97c06181933ef7d0029a165627a7a72305820955001be179d3a9ce7b74719ef0f6f7e0bd546bea3f7ddb5473f5fd76266da500029",
  "source": "pragma solidity ^0.4.18;\r\nimport \"./Krypto.sol\";\r\n\r\n// ----------------------------------------------------------------------------------------------\r\n// Krypto Token by Krypto Limited.\r\n// An ERC20 standard\r\n//\r\n// author: Krypto Team\r\n// Contact: datwhnguyen@gmail.com\r\n\r\n/// @title Multisignature wallet - Allows multiple parties to agree on transactions before execution.\r\n/// @author Stefan George - <stefan.george@consensys.net>\r\ncontract MultiSigWallet {\r\n\r\n    uint constant public MAX_OWNER_COUNT = 50;\r\n\r\n    event Confirmation(address indexed sender, uint indexed transactionId);\r\n    event Revocation(address indexed sender, uint indexed transactionId);\r\n    event Submission(uint indexed transactionId);\r\n    event Execution(uint indexed transactionId);\r\n    event ExecutionFailure(uint indexed transactionId);\r\n    event Deposit(address indexed sender, uint value);\r\n    event OwnerAddition(address indexed owner);\r\n    event OwnerRemoval(address indexed owner);\r\n    event RequirementChange(uint required);\r\n    event CoinCreation(address coin);\r\n\r\n    mapping (uint => Transaction) public transactions;\r\n    mapping (uint => mapping (address => bool)) public confirmations;\r\n    mapping (address => bool) public isOwner;\r\n    address[] public owners;\r\n    uint public required;\r\n    uint public transactionCount;\r\n    bool flag = true;\r\n\r\n    struct Transaction {\r\n        address destination;\r\n        uint value;\r\n        bytes data;\r\n        bool executed;\r\n    }\r\n\r\n    modifier onlyWallet() {\r\n        if (msg.sender != address(this))\r\n            revert();\r\n        _;\r\n    }\r\n\r\n    modifier ownerDoesNotExist(address owner) {\r\n        if (isOwner[owner])\r\n            revert();\r\n        _;\r\n    }\r\n\r\n    modifier ownerExists(address owner) {\r\n        if (!isOwner[owner])\r\n            revert();\r\n        _;\r\n    }\r\n\r\n    modifier transactionExists(uint transactionId) {\r\n        if (transactions[transactionId].destination == 0)\r\n            revert();\r\n        _;\r\n    }\r\n\r\n    modifier confirmed(uint transactionId, address owner) {\r\n        if (!confirmations[transactionId][owner])\r\n            revert();\r\n        _;\r\n    }\r\n\r\n    modifier notConfirmed(uint transactionId, address owner) {\r\n        if (confirmations[transactionId][owner])\r\n            revert();\r\n        _;\r\n    }\r\n\r\n    modifier notExecuted(uint transactionId) {\r\n        if (transactions[transactionId].executed)\r\n            revert();\r\n        _;\r\n    }\r\n\r\n    modifier notNull(address _address) {\r\n        if (_address == 0)\r\n            revert();\r\n        _;\r\n    }\r\n\r\n    modifier validRequirement(uint ownerCount, uint _required) {\r\n        if (   ownerCount > MAX_OWNER_COUNT\r\n            || _required > ownerCount\r\n            || _required == 0\r\n            || ownerCount == 0)\r\n            revert();\r\n        _;\r\n    }\r\n\r\n    /// @dev Fallback function allows to deposit ether.\r\n    function()\r\n        payable\r\n    {\r\n        if (msg.value > 0)\r\n            Deposit(msg.sender, msg.value);\r\n    }\r\n\r\n    /*\r\n     * Public functions\r\n     */\r\n    /// @dev Contract constructor sets initial owners and required number of confirmations.\r\n    /// @param _owners List of initial owners.\r\n    /// @param _required Number of required confirmations.\r\n    function MultiSigWallet(address[] _owners, uint _required)\r\n        public\r\n        validRequirement(_owners.length, _required)\r\n    {\r\n        for (uint i=0; i<_owners.length; i++) {\r\n            if (isOwner[_owners[i]] || _owners[i] == 0)\r\n                revert();\r\n            isOwner[_owners[i]] = true;\r\n        }\r\n        owners = _owners;\r\n        required = _required;\r\n    }\r\n\r\n    /// @dev Allows to add a new owner. Transaction has to be sent by wallet.\r\n    /// @param owner Address of new owner.\r\n    function addOwner(address owner)\r\n        public\r\n        onlyWallet\r\n        ownerDoesNotExist(owner)\r\n        notNull(owner)\r\n        validRequirement(owners.length + 1, required)\r\n    {\r\n        isOwner[owner] = true;\r\n        owners.push(owner);\r\n        OwnerAddition(owner);\r\n    }\r\n\r\n    /// @dev Allows to remove an owner. Transaction has to be sent by wallet.\r\n    /// @param owner Address of owner.\r\n    function removeOwner(address owner)\r\n        public\r\n        onlyWallet\r\n        ownerExists(owner)\r\n    {\r\n        isOwner[owner] = false;\r\n        for (uint i=0; i<owners.length - 1; i++)\r\n            if (owners[i] == owner) {\r\n                owners[i] = owners[owners.length - 1];\r\n                break;\r\n            }\r\n        owners.length -= 1;\r\n        if (required > owners.length)\r\n            changeRequirement(owners.length);\r\n        OwnerRemoval(owner);\r\n    }\r\n\r\n    /// @dev Allows to replace an owner with a new owner. Transaction has to be sent by wallet.\r\n    /// @param owner Address of owner to be replaced.\r\n    /// @param owner Address of new owner.\r\n    function replaceOwner(address owner, address newOwner)\r\n        public\r\n        onlyWallet\r\n        ownerExists(owner)\r\n        ownerDoesNotExist(newOwner)\r\n    {\r\n        for (uint i=0; i<owners.length; i++)\r\n            if (owners[i] == owner) {\r\n                owners[i] = newOwner;\r\n                break;\r\n            }\r\n        isOwner[owner] = false;\r\n        isOwner[newOwner] = true;\r\n        OwnerRemoval(owner);\r\n        OwnerAddition(newOwner);\r\n    }\r\n\r\n    /// @dev Allows to change the number of required confirmations. Transaction has to be sent by wallet.\r\n    /// @param _required Number of required confirmations.\r\n    function changeRequirement(uint _required)\r\n        public\r\n        onlyWallet\r\n        validRequirement(owners.length, _required)\r\n    {\r\n        required = _required;\r\n        RequirementChange(_required);\r\n    }\r\n\r\n    /// @dev Allows an owner to submit and confirm a transaction.\r\n    /// @param destination Transaction target address.\r\n    /// @param value Transaction ether value.\r\n    /// @param data Transaction data payload.\r\n    /// @return Returns transaction ID.\r\n    function submitTransaction(address destination, uint value, bytes data)\r\n        public\r\n        returns (uint transactionId)\r\n    {\r\n        transactionId = addTransaction(destination, value, data);\r\n        confirmTransaction(transactionId);\r\n    }\r\n\r\n    /// @dev Allows an owner to confirm a transaction.\r\n    /// @param transactionId Transaction ID.\r\n    function confirmTransaction(uint transactionId)\r\n        public\r\n        ownerExists(msg.sender)\r\n        transactionExists(transactionId)\r\n        notConfirmed(transactionId, msg.sender)\r\n    {\r\n        confirmations[transactionId][msg.sender] = true;\r\n        Confirmation(msg.sender, transactionId);\r\n        executeTransaction(transactionId);\r\n    }\r\n\r\n    /// @dev Allows an owner to revoke a confirmation for a transaction.\r\n    /// @param transactionId Transaction ID.\r\n    function revokeConfirmation(uint transactionId)\r\n        public\r\n        ownerExists(msg.sender)\r\n        confirmed(transactionId, msg.sender)\r\n        notExecuted(transactionId)\r\n    {\r\n        confirmations[transactionId][msg.sender] = false;\r\n        Revocation(msg.sender, transactionId);\r\n    }\r\n\r\n    /// @dev Allows anyone to execute a confirmed transaction.\r\n    /// @param transactionId Transaction ID.\r\n    function executeTransaction(uint transactionId)\r\n        public\r\n        notExecuted(transactionId)\r\n    {\r\n        if (isConfirmed(transactionId)) {\r\n            Transaction tx = transactions[transactionId];\r\n            tx.executed = true;\r\n            if (tx.destination.call.value(tx.value)(tx.data))\r\n                Execution(transactionId);\r\n            else {\r\n                ExecutionFailure(transactionId);\r\n                tx.executed = false;\r\n            }\r\n        }\r\n    }\r\n\r\n    /// @dev Returns the confirmation status of a transaction.\r\n    /// @param transactionId Transaction ID.\r\n    /// @return Confirmation status.\r\n    function isConfirmed(uint transactionId)\r\n        public\r\n        constant\r\n        returns (bool)\r\n    {\r\n        uint count = 0;\r\n        for (uint i=0; i<owners.length; i++) {\r\n            if (confirmations[transactionId][owners[i]])\r\n                count += 1;\r\n            if (count == required)\r\n                return true;\r\n        }\r\n    }\r\n\r\n    /*\r\n     * Internal functions\r\n     */\r\n    /// @dev Adds a new transaction to the transaction mapping, if transaction does not exist yet.\r\n    /// @param destination Transaction target address.\r\n    /// @param value Transaction ether value.\r\n    /// @param data Transaction data payload.\r\n    /// @return Returns transaction ID.\r\n    function addTransaction(address destination, uint value, bytes data)\r\n        internal\r\n        notNull(destination)\r\n        returns (uint transactionId)\r\n    {\r\n        transactionId = transactionCount;\r\n        transactions[transactionId] = Transaction({\r\n            destination: destination,\r\n            value: value,\r\n            data: data,\r\n            executed: false\r\n        });\r\n        transactionCount += 1;\r\n        Submission(transactionId);\r\n    }\r\n\r\n    /*\r\n     * Web3 call functions\r\n     */\r\n    /// @dev Returns number of confirmations of a transaction.\r\n    /// @param transactionId Transaction ID.\r\n    /// @return Number of confirmations.\r\n    function getConfirmationCount(uint transactionId)\r\n        public\r\n        constant\r\n        returns (uint count)\r\n    {\r\n        for (uint i=0; i<owners.length; i++)\r\n            if (confirmations[transactionId][owners[i]])\r\n                count += 1;\r\n    }\r\n\r\n    /// @dev Returns total number of transactions after filers are applied.\r\n    /// @param pending Include pending transactions.\r\n    /// @param executed Include executed transactions.\r\n    /// @return Total number of transactions after filters are applied.\r\n    function getTransactionCount(bool pending, bool executed)\r\n        public\r\n        constant\r\n        returns (uint count)\r\n    {\r\n        for (uint i=0; i<transactionCount; i++)\r\n            if (   pending && !transactions[i].executed\r\n                || executed && transactions[i].executed)\r\n                count += 1;\r\n    }\r\n\r\n    /// @dev Returns list of owners.\r\n    /// @return List of owner addresses.\r\n    function getOwners()\r\n        public\r\n        constant\r\n        returns (address[])\r\n    {\r\n        return owners;\r\n    }\r\n\r\n    /// @dev Returns array with owner addresses, which confirmed transaction.\r\n    /// @param transactionId Transaction ID.\r\n    /// @return Returns array of owner addresses.\r\n    function getConfirmations(uint transactionId)\r\n        public\r\n        constant\r\n        returns (address[] _confirmations)\r\n    {\r\n        address[] memory confirmationsTemp = new address[](owners.length);\r\n        uint count = 0;\r\n        uint i;\r\n        for (i=0; i<owners.length; i++)\r\n            if (confirmations[transactionId][owners[i]]) {\r\n                confirmationsTemp[count] = owners[i];\r\n                count += 1;\r\n            }\r\n        _confirmations = new address[](count);\r\n        for (i=0; i<count; i++)\r\n            _confirmations[i] = confirmationsTemp[i];\r\n    }\r\n\r\n    /// @dev Returns list of transaction IDs in defined range.\r\n    /// @param from Index start position of transaction array.\r\n    /// @param to Index end position of transaction array.\r\n    /// @param pending Include pending transactions.\r\n    /// @param executed Include executed transactions.\r\n    /// @return Returns array of transaction IDs.\r\n    function getTransactionIds(uint from, uint to, bool pending, bool executed)\r\n        public\r\n        constant\r\n        returns (uint[] _transactionIds)\r\n    {\r\n        uint[] memory transactionIdsTemp = new uint[](transactionCount);\r\n        uint count = 0;\r\n        uint i;\r\n        for (i=0; i<transactionCount; i++)\r\n            if (   pending && !transactions[i].executed\r\n                || executed && transactions[i].executed)\r\n            {\r\n                transactionIdsTemp[count] = i;\r\n                count += 1;\r\n            }\r\n        _transactionIds = new uint[](to - from);\r\n        for (i=from; i<to; i++)\r\n            _transactionIds[i - from] = transactionIdsTemp[i];\r\n    }\r\n    \r\n    /// @dev Create new coin.\r\n    function createCoin()\r\n        external\r\n        onlyWallet\r\n    {\r\n        require(flag == true);\r\n        CoinCreation(new Krypto());\r\n        flag = false;\r\n    }\r\n}\r\n",
  "sourcePath": "C:\\Users\\trong\\Documents\\Truffle\\Krypto\\contracts\\Consensys_MultisigWallet.sol",
  "compiler": {
    "name": "solc",
    "version": "0.4.19+commit.c4cbbb05.Emscripten.clang"
  },
  "schemaVersion": "2.0.0",
  "updatedAt": "2018-03-06T07:30:25.008Z"
}