{
  "contractName": "Receive",
  "abi": [
    {
      "constant": true,
      "inputs": [],
      "name": "a",
      "outputs": [
        {
          "name": "",
          "type": "uint256"
        }
      ],
      "payable": false,
      "stateMutability": "view",
      "type": "function"
    },
    {
      "constant": false,
      "inputs": [
        {
          "name": "_from",
          "type": "address"
        },
        {
          "name": "_value",
          "type": "uint256"
        },
        {
          "name": "_data",
          "type": "bytes"
        }
      ],
      "name": "tokenFallback",
      "outputs": [],
      "payable": false,
      "stateMutability": "nonpayable",
      "type": "function"
    },
    {
      "anonymous": false,
      "inputs": [
        {
          "indexed": false,
          "name": "_from",
          "type": "address"
        },
        {
          "indexed": false,
          "name": "_value",
          "type": "uint256"
        },
        {
          "indexed": false,
          "name": "_data",
          "type": "bytes"
        }
      ],
      "name": "Token",
      "type": "event"
    },
    {
      "constant": false,
      "inputs": [
        {
          "name": "value",
          "type": "uint256"
        }
      ],
      "name": "increase",
      "outputs": [],
      "payable": false,
      "stateMutability": "nonpayable",
      "type": "function"
    }
  ],
  "bytecode": "0x606060405260008055341561001357600080fd5b61041d806100226000396000f3006060604052600436106100565763ffffffff7c01000000000000000000000000000000000000000000000000000000006000350416630dbe671f811461005b57806330f3f0db14610080578063c0ee0b8a14610098575b600080fd5b341561006657600080fd5b61006e6100fd565b60405190815260200160405180910390f35b341561008b57600080fd5b610096600435610103565b005b34156100a357600080fd5b61009660048035600160a060020a03169060248035919060649060443590810190830135806020601f8201819004810201604051908101604052818152929190602084018383808284375094965061012e95505050505050565b60005481565b30600160a060020a031633600160a060020a031614151561012357600080fd5b600080549091019055565b6101366103b1565b600160a060020a038416815260208101839052604081018290526000601883828151811061016057fe5b016020015160f860020a900460f860020a0260f860020a900463ffffffff169060020a0260108460018151811061019357fe5b016020015160f860020a900460f860020a0260f860020a900463ffffffff169060020a026008856002815181106101c657fe5b016020015160f860020a900460f860020a0260f860020a900463ffffffff169060020a02856003815181106101f757fe5b016020015160f860020a900460f860020a0260f860020a90040101019050807c01000000000000000000000000000000000000000000000000000000000282606001907bffffffffffffffffffffffffffffffffffffffffffffffffffffffff191690817bffffffffffffffffffffffffffffffffffffffffffffffffffffffff19168152505030600160a060020a03168360405180828051906020019080838360005b838110156102b357808201518382015260200161029b565b50505050905090810190601f1680156102e05780820380516001836020036101000a031916815260200191505b509150506000604051808303818561646e5a03f4915050507f5e3f5fe958cc37da1b14562d4cda2232c0b6218301c38d189dbdcc31b1a2e92d858585604051600160a060020a03841681526020810183905260606040820181815290820183818151815260200191508051906020019080838360005b8381101561036e578082015183820152602001610356565b50505050905090810190601f16801561039b5780820380516001836020036101000a031916815260200191505b5094505050505060405180910390a15050505050565b608060405190810160409081526000808352602083015281016103d26103df565b8152600060209091015290565b602060405190810160405260008152905600a165627a7a7230582085ffe63f9f93715d6c9c95bd8667dd81d298c4b1f7dd4c187e430c0a739316b20029",
  "source": "pragma solidity ^0.4.18;\r\nimport \"./ContractReceiver.sol\";\r\n\r\ncontract Receive is ContractReceiver {\r\n    uint256 public a = 0; \r\n    function increase(uint256 value)\r\n    public {\r\n        require(msg.sender == address(this));\r\n        a = a+value;\r\n    }\r\n}",
  "sourcePath": "C:\\Users\\trong\\Documents\\Truffle\\Krypto\\contracts\\Receive.sol",
  "compiler": {
    "name": "solc",
    "version": "0.4.19+commit.c4cbbb05.Emscripten.clang"
  },
  "schemaVersion": "2.0.0",
  "updatedAt": "2018-03-06T11:08:21.873Z"
}