{
  "contractName": "Receive",
  "abi": [
    {
      "constant": true,
      "inputs": [],
      "name": "a",
      "outputs": [
        {
          "name": "",
          "type": "uint256"
        }
      ],
      "payable": false,
      "stateMutability": "view",
      "type": "function"
    },
    {
      "constant": false,
      "inputs": [
        {
          "name": "a",
          "type": "uint256"
        }
      ],
      "name": "test",
      "outputs": [],
      "payable": false,
      "stateMutability": "nonpayable",
      "type": "function"
    },
    {
      "constant": false,
      "inputs": [
        {
          "name": "_from",
          "type": "address"
        },
        {
          "name": "_value",
          "type": "uint256"
        },
        {
          "name": "_data",
          "type": "bytes"
        }
      ],
      "name": "tokenFallback",
      "outputs": [],
      "payable": false,
      "stateMutability": "nonpayable",
      "type": "function"
    },
    {
      "anonymous": false,
      "inputs": [
        {
          "indexed": false,
          "name": "_from",
          "type": "address"
        },
        {
          "indexed": false,
          "name": "_value",
          "type": "uint256"
        },
        {
          "indexed": false,
          "name": "_data",
          "type": "bytes"
        }
      ],
      "name": "Token",
      "type": "event"
    },
    {
      "anonymous": false,
      "inputs": [
        {
          "indexed": false,
          "name": "a",
          "type": "uint256"
        }
      ],
      "name": "Test",
      "type": "event"
    },
    {
      "constant": false,
      "inputs": [
        {
          "name": "value",
          "type": "uint256"
        }
      ],
      "name": "increase",
      "outputs": [],
      "payable": false,
      "stateMutability": "nonpayable",
      "type": "function"
    }
  ],
  "bytecode": "0x606060405260008055341561001357600080fd5b610418806100226000396000f3006060604052600436106100615763ffffffff7c01000000000000000000000000000000000000000000000000000000006000350416630dbe671f811461006657806329e99f071461008b57806330f3f0db146100a3578063c0ee0b8a146100b9575b600080fd5b341561007157600080fd5b6100796100e8565b60405190815260200160405180910390f35b341561009657600080fd5b6100a16004356100ee565b005b34156100ae57600080fd5b6100a1600435610124565b34156100c457600080fd5b6100a160048035600160a060020a031690602480359160443591820191013561014f565b60005481565b7f63a242a632efe33c0e210e04e4173612a17efa4f16aa4890bc7e46caece80de08160405190815260200160405180910390a150565b30600160a060020a031633600160a060020a031614151561014457600080fd5b600080549091019055565b6101576103ac565b600160a060020a03851681526020808201859052600090849084908190601f82018190048102016040519081016040528181529291906020840183838082843750505050506040840191909152506018848460008181106101b457fe5b905090013560f860020a900460f860020a02600160f860020a03191660f860020a900463ffffffff169060020a0260108585600181811015156101f357fe5b905090013560f860020a900460f860020a02600160f860020a03191660f860020a900463ffffffff169060020a02600886866002818110151561023257fe5b905090013560f860020a900460f860020a02600160f860020a03191660f860020a900463ffffffff169060020a0286866003818110151561026f57fe5b905090013560f860020a900460f860020a02600160f860020a03191660f860020a90040101019050807c01000000000000000000000000000000000000000000000000000000000282606001907bffffffffffffffffffffffffffffffffffffffffffffffffffffffff191690817bffffffffffffffffffffffffffffffffffffffffffffffffffffffff19168152505030600160a060020a031684846040518083838082843782019150509250505060006040518083038160008661646e5a03f1915050151561033c57fe5b7f5e3f5fe958cc37da1b14562d4cda2232c0b6218301c38d189dbdcc31b1a2e92d86868686604051600160a060020a0385168152602081018490526060604082018181529082018390526080820184848082843782019150509550505050505060405180910390a1505050505050565b608060405190810160409081526000808352602083015281016103cd6103da565b8152600060209091015290565b602060405190810160405260008152905600a165627a7a72305820c47a39c243162fd6e9d4510bee566641f165e51fc0400292630209d4ce7db5930029",
  "source": "pragma solidity ^0.4.18;\r\nimport \"./ContractReceiver.sol\";\r\n\r\ncontract Receive is ContractReceiver {\r\n    uint256 public a = 0; \r\n    function increase(uint256 value)\r\n    public {\r\n        require(msg.sender == address(this));\r\n        a = a+value;\r\n    }\r\n}",
  "sourcePath": "C:\\Users\\trongcau\\Documents\\GitHub\\krypto\\contracts\\Receive.sol",
  "compiler": {
    "name": "solc",
    "version": "0.4.19+commit.c4cbbb05.Emscripten.clang"
  },
  "schemaVersion": "2.0.0",
  "updatedAt": "2018-04-11T02:48:33.184Z"
}